{
  "contractName": "EthlanceJobs",
  "abi": [
    {
      "constant": true,
      "inputs": [
        {
          "name": "",
          "type": "uint256"
        }
      ],
      "name": "jobs",
      "outputs": [
        {
          "name": "token",
          "type": "address"
        },
        {
          "name": "tokenVersion",
          "type": "uint256"
        },
        {
          "name": "balance",
          "type": "uint256"
        }
      ],
      "payable": false,
      "stateMutability": "view",
      "type": "function"
    },
    {
      "constant": true,
      "inputs": [],
      "name": "callStarted",
      "outputs": [
        {
          "name": "",
          "type": "bool"
        }
      ],
      "payable": false,
      "stateMutability": "view",
      "type": "function"
    },
    {
      "constant": true,
      "inputs": [],
      "name": "owner",
      "outputs": [
        {
          "name": "",
          "type": "address"
        }
      ],
      "payable": false,
      "stateMutability": "view",
      "type": "function"
    },
    {
      "constant": true,
      "inputs": [],
      "name": "numJobs",
      "outputs": [
        {
          "name": "",
          "type": "uint256"
        }
      ],
      "payable": false,
      "stateMutability": "view",
      "type": "function"
    },
    {
      "constant": true,
      "inputs": [],
      "name": "metaTxRelayer",
      "outputs": [
        {
          "name": "",
          "type": "address"
        }
      ],
      "payable": false,
      "stateMutability": "view",
      "type": "function"
    },
    {
      "constant": true,
      "inputs": [
        {
          "name": "",
          "type": "uint256"
        },
        {
          "name": "",
          "type": "uint256"
        }
      ],
      "name": "tokenBalances",
      "outputs": [
        {
          "name": "",
          "type": "bool"
        }
      ],
      "payable": false,
      "stateMutability": "view",
      "type": "function"
    },
    {
      "inputs": [],
      "payable": false,
      "stateMutability": "nonpayable",
      "type": "constructor"
    },
    {
      "anonymous": false,
      "inputs": [
        {
          "indexed": false,
          "name": "_jobId",
          "type": "uint256"
        },
        {
          "indexed": false,
          "name": "_creator",
          "type": "address"
        },
        {
          "indexed": false,
          "name": "_issuers",
          "type": "address[]"
        },
        {
          "indexed": false,
          "name": "_approvers",
          "type": "address[]"
        },
        {
          "indexed": false,
          "name": "_ipfsHash",
          "type": "string"
        },
        {
          "indexed": false,
          "name": "_token",
          "type": "address"
        },
        {
          "indexed": false,
          "name": "_tokenVersion",
          "type": "uint256"
        }
      ],
      "name": "JobIssued",
      "type": "event"
    },
    {
      "anonymous": false,
      "inputs": [
        {
          "indexed": false,
          "name": "_jobId",
          "type": "uint256"
        },
        {
          "indexed": false,
          "name": "_contributionId",
          "type": "uint256"
        },
        {
          "indexed": false,
          "name": "_contributor",
          "type": "address"
        },
        {
          "indexed": false,
          "name": "_amount",
          "type": "uint256"
        }
      ],
      "name": "ContributionAdded",
      "type": "event"
    },
    {
      "anonymous": false,
      "inputs": [
        {
          "indexed": false,
          "name": "_jobId",
          "type": "uint256"
        },
        {
          "indexed": false,
          "name": "_contributionId",
          "type": "uint256"
        }
      ],
      "name": "ContributionRefunded",
      "type": "event"
    },
    {
      "anonymous": false,
      "inputs": [
        {
          "indexed": false,
          "name": "_jobId",
          "type": "uint256"
        },
        {
          "indexed": false,
          "name": "_issuer",
          "type": "address"
        },
        {
          "indexed": false,
          "name": "_contributionIds",
          "type": "uint256[]"
        }
      ],
      "name": "ContributionsRefunded",
      "type": "event"
    },
    {
      "anonymous": false,
      "inputs": [
        {
          "indexed": false,
          "name": "_jobId",
          "type": "uint256"
        },
        {
          "indexed": false,
          "name": "_issuer",
          "type": "address"
        },
        {
          "indexed": false,
          "name": "_amounts",
          "type": "uint256[]"
        }
      ],
      "name": "JobDrained",
      "type": "event"
    },
    {
      "anonymous": false,
      "inputs": [
        {
          "indexed": false,
          "name": "_jobId",
          "type": "uint256"
        },
        {
          "indexed": false,
          "name": "_invoiceId",
          "type": "uint256"
        },
        {
          "indexed": false,
          "name": "_invoiceIssuer",
          "type": "address"
        },
        {
          "indexed": false,
          "name": "_ipfsHash",
          "type": "string"
        },
        {
          "indexed": false,
          "name": "_submitter",
          "type": "address"
        },
        {
          "indexed": false,
          "name": "_amount",
          "type": "uint256"
        }
      ],
      "name": "JobInvoice",
      "type": "event"
    },
    {
      "anonymous": false,
      "inputs": [
        {
          "indexed": false,
          "name": "_jobId",
          "type": "uint256"
        },
        {
          "indexed": false,
          "name": "_invoiceId",
          "type": "uint256"
        },
        {
          "indexed": false,
          "name": "_approver",
          "type": "address"
        },
        {
          "indexed": false,
          "name": "_amount",
          "type": "uint256"
        }
      ],
      "name": "InvoiceAccepted",
      "type": "event"
    },
    {
      "anonymous": false,
      "inputs": [
        {
          "indexed": false,
          "name": "_jobId",
          "type": "uint256"
        },
        {
          "indexed": false,
          "name": "_changer",
          "type": "address"
        },
        {
          "indexed": false,
          "name": "_issuers",
          "type": "address[]"
        },
        {
          "indexed": false,
          "name": "_approvers",
          "type": "address[]"
        },
        {
          "indexed": false,
          "name": "_ipfsHash",
          "type": "string"
        }
      ],
      "name": "JobChanged",
      "type": "event"
    },
    {
      "anonymous": false,
      "inputs": [
        {
          "indexed": false,
          "name": "_jobId",
          "type": "uint256"
        },
        {
          "indexed": false,
          "name": "_changer",
          "type": "address"
        },
        {
          "indexed": false,
          "name": "_issuers",
          "type": "address[]"
        }
      ],
      "name": "JobIssuersUpdated",
      "type": "event"
    },
    {
      "anonymous": false,
      "inputs": [
        {
          "indexed": false,
          "name": "_jobId",
          "type": "uint256"
        },
        {
          "indexed": false,
          "name": "_changer",
          "type": "address"
        },
        {
          "indexed": false,
          "name": "_approvers",
          "type": "address[]"
        }
      ],
      "name": "JobApproversUpdated",
      "type": "event"
    },
    {
      "anonymous": false,
      "inputs": [
        {
          "indexed": false,
          "name": "_jobId",
          "type": "uint256"
        },
        {
          "indexed": false,
          "name": "_changer",
          "type": "address"
        },
        {
          "indexed": false,
          "name": "_ipfsHash",
          "type": "string"
        }
      ],
      "name": "JobDataChanged",
      "type": "event"
    },
    {
      "anonymous": false,
      "inputs": [
        {
          "indexed": false,
          "name": "_jobId",
          "type": "uint256"
        },
        {
          "indexed": false,
          "name": "_candidate",
          "type": "address"
        }
      ],
      "name": "CandidateAccepted",
      "type": "event"
    },
    {
      "anonymous": false,
      "inputs": [
        {
          "indexed": false,
          "name": "_sender",
          "type": "address"
        },
        {
          "indexed": false,
          "name": "_jobId",
          "type": "uint256"
        },
        {
          "indexed": false,
          "name": "_invoiceId",
          "type": "uint256"
        }
      ],
      "name": "InvoiceCancelled",
      "type": "event"
    },
    {
      "constant": false,
      "inputs": [
        {
          "name": "_relayer",
          "type": "address"
        }
      ],
      "name": "setMetaTxRelayer",
      "outputs": [],
      "payable": false,
      "stateMutability": "nonpayable",
      "type": "function"
    },
    {
      "constant": false,
      "inputs": [
        {
          "name": "jobId",
          "type": "uint256"
        },
        {
          "name": "candidate",
          "type": "address"
        }
      ],
      "name": "acceptCandidate",
      "outputs": [],
      "payable": false,
      "stateMutability": "nonpayable",
      "type": "function"
    },
    {
      "constant": false,
      "inputs": [
        {
          "name": "_sender",
          "type": "address"
        },
        {
          "name": "_issuers",
          "type": "address[]"
        },
        {
          "name": "_approvers",
          "type": "address[]"
        },
        {
          "name": "_ipfsHash",
          "type": "string"
        },
        {
          "name": "_token",
          "type": "address"
        },
        {
          "name": "_tokenVersion",
          "type": "uint256"
        }
      ],
      "name": "issueJob",
      "outputs": [
        {
          "name": "",
          "type": "uint256"
        }
      ],
      "payable": false,
      "stateMutability": "nonpayable",
      "type": "function"
    },
    {
      "constant": false,
      "inputs": [
        {
          "name": "_sender",
          "type": "address"
        },
        {
          "name": "_issuers",
          "type": "address[]"
        },
        {
          "name": "_approvers",
          "type": "address[]"
        },
        {
          "name": "_ipfsHash",
          "type": "string"
        },
        {
          "name": "_token",
          "type": "address"
        },
        {
          "name": "_tokenVersion",
          "type": "uint256"
        },
        {
          "name": "_depositAmount",
          "type": "uint256"
        }
      ],
      "name": "issueAndContribute",
      "outputs": [
        {
          "name": "",
          "type": "uint256"
        }
      ],
      "payable": true,
      "stateMutability": "payable",
      "type": "function"
    },
    {
      "constant": false,
      "inputs": [
        {
          "name": "_sender",
          "type": "address"
        },
        {
          "name": "_jobId",
          "type": "uint256"
        },
        {
          "name": "_amount",
          "type": "uint256"
        }
      ],
      "name": "contribute",
      "outputs": [],
      "payable": true,
      "stateMutability": "payable",
      "type": "function"
    },
    {
      "constant": false,
      "inputs": [
        {
          "name": "_sender",
          "type": "address"
        },
        {
          "name": "_jobId",
          "type": "uint256"
        },
        {
          "name": "_issuerId",
          "type": "uint256"
        },
        {
          "name": "_contributionId",
          "type": "uint256"
        }
      ],
      "name": "refundContribution",
      "outputs": [],
      "payable": false,
      "stateMutability": "nonpayable",
      "type": "function"
    },
    {
      "constant": false,
      "inputs": [
        {
          "name": "_sender",
          "type": "address"
        },
        {
          "name": "_jobId",
          "type": "uint256"
        },
        {
          "name": "_issuerId",
          "type": "uint256"
        },
        {
          "name": "_contributionIds",
          "type": "uint256[]"
        }
      ],
      "name": "refundMyContributions",
      "outputs": [],
      "payable": false,
      "stateMutability": "nonpayable",
      "type": "function"
    },
    {
      "constant": false,
      "inputs": [
        {
          "name": "_sender",
          "type": "address"
        },
        {
          "name": "_jobId",
          "type": "uint256"
        },
        {
          "name": "_issuerId",
          "type": "uint256"
        },
        {
          "name": "_contributionIds",
          "type": "uint256[]"
        }
      ],
      "name": "refundContributions",
      "outputs": [],
      "payable": false,
      "stateMutability": "nonpayable",
      "type": "function"
    },
    {
      "constant": false,
      "inputs": [
        {
          "name": "_sender",
          "type": "address"
        },
        {
          "name": "_jobId",
          "type": "uint256"
        },
        {
          "name": "_issuerId",
          "type": "uint256"
        },
        {
          "name": "_amounts",
          "type": "uint256[]"
        }
      ],
      "name": "drainJob",
      "outputs": [],
      "payable": false,
      "stateMutability": "nonpayable",
      "type": "function"
    },
    {
      "constant": false,
      "inputs": [
        {
          "name": "_sender",
          "type": "address"
        },
        {
          "name": "_jobId",
          "type": "uint256"
        },
        {
          "name": "_invoiceIssuer",
          "type": "address"
        },
        {
          "name": "_ipfsHash",
          "type": "string"
        },
        {
          "name": "_amount",
          "type": "uint256"
        }
      ],
      "name": "invoiceJob",
      "outputs": [],
      "payable": false,
      "stateMutability": "nonpayable",
      "type": "function"
    },
    {
      "constant": false,
      "inputs": [
        {
          "name": "_sender",
          "type": "address"
        },
        {
          "name": "_jobId",
          "type": "uint256"
        },
        {
          "name": "_invoiceId",
          "type": "uint256"
        }
      ],
      "name": "cancelInvoice",
      "outputs": [],
      "payable": false,
      "stateMutability": "nonpayable",
      "type": "function"
    },
    {
      "constant": false,
      "inputs": [
        {
          "name": "_sender",
          "type": "address"
        },
        {
          "name": "_jobId",
          "type": "uint256"
        },
        {
          "name": "_invoiceId",
          "type": "uint256"
        },
        {
          "name": "_approverId",
          "type": "uint256"
        }
      ],
      "name": "acceptInvoice",
      "outputs": [],
      "payable": false,
      "stateMutability": "nonpayable",
      "type": "function"
    },
    {
      "constant": false,
      "inputs": [
        {
          "name": "_sender",
          "type": "address"
        },
        {
          "name": "_jobId",
          "type": "uint256"
        },
        {
          "name": "_invoiceIssuer",
          "type": "address"
        },
        {
          "name": "_ipfsHash",
          "type": "string"
        },
        {
          "name": "_approverId",
          "type": "uint256"
        },
        {
          "name": "_amount",
          "type": "uint256"
        }
      ],
      "name": "invoiceAndAccept",
      "outputs": [],
      "payable": false,
      "stateMutability": "nonpayable",
      "type": "function"
    },
    {
      "constant": false,
      "inputs": [
        {
          "name": "_sender",
          "type": "address"
        },
        {
          "name": "_jobId",
          "type": "uint256"
        },
        {
          "name": "_issuerId",
          "type": "uint256"
        },
        {
          "name": "_issuers",
          "type": "address[]"
        },
        {
          "name": "_approvers",
          "type": "address[]"
        },
        {
          "name": "_ipfsHash",
          "type": "string"
        }
      ],
      "name": "changeJob",
      "outputs": [],
      "payable": false,
      "stateMutability": "nonpayable",
      "type": "function"
    },
    {
      "constant": false,
      "inputs": [
        {
          "name": "_sender",
          "type": "address"
        },
        {
          "name": "_jobId",
          "type": "uint256"
        },
        {
          "name": "_issuerId",
          "type": "uint256"
        },
        {
          "name": "_issuerIdToChange",
          "type": "uint256"
        },
        {
          "name": "_newIssuer",
          "type": "address"
        }
      ],
      "name": "changeIssuer",
      "outputs": [],
      "payable": false,
      "stateMutability": "nonpayable",
      "type": "function"
    },
    {
      "constant": false,
      "inputs": [
        {
          "name": "_sender",
          "type": "address"
        },
        {
          "name": "_jobId",
          "type": "uint256"
        },
        {
          "name": "_issuerId",
          "type": "uint256"
        },
        {
          "name": "_approverId",
          "type": "uint256"
        },
        {
          "name": "_approver",
          "type": "address"
        }
      ],
      "name": "changeApprover",
      "outputs": [],
      "payable": false,
      "stateMutability": "nonpayable",
      "type": "function"
    },
    {
      "constant": false,
      "inputs": [
        {
          "name": "_sender",
          "type": "address"
        },
        {
          "name": "_jobId",
          "type": "uint256"
        },
        {
          "name": "_issuerId",
          "type": "uint256"
        },
        {
          "name": "_ipfsHash",
          "type": "string"
        }
      ],
      "name": "changeData",
      "outputs": [],
      "payable": false,
      "stateMutability": "nonpayable",
      "type": "function"
    },
    {
      "constant": false,
      "inputs": [
        {
          "name": "_sender",
          "type": "address"
        },
        {
          "name": "_jobId",
          "type": "uint256"
        },
        {
          "name": "_issuerId",
          "type": "uint256"
        },
        {
          "name": "_issuers",
          "type": "address[]"
        }
      ],
      "name": "addIssuers",
      "outputs": [],
      "payable": false,
      "stateMutability": "nonpayable",
      "type": "function"
    },
    {
      "constant": false,
      "inputs": [
        {
          "name": "_sender",
          "type": "address"
        },
        {
          "name": "_jobId",
          "type": "uint256"
        },
        {
          "name": "_issuerId",
          "type": "uint256"
        },
        {
          "name": "_issuers",
          "type": "address[]"
        }
      ],
      "name": "replaceIssuers",
      "outputs": [],
      "payable": false,
      "stateMutability": "nonpayable",
      "type": "function"
    },
    {
      "constant": false,
      "inputs": [
        {
          "name": "_sender",
          "type": "address"
        },
        {
          "name": "_jobId",
          "type": "uint256"
        },
        {
          "name": "_issuerId",
          "type": "uint256"
        },
        {
          "name": "_approvers",
          "type": "address[]"
        }
      ],
      "name": "addApprovers",
      "outputs": [],
      "payable": false,
      "stateMutability": "nonpayable",
      "type": "function"
    },
    {
      "constant": false,
      "inputs": [
        {
          "name": "_sender",
          "type": "address"
        },
        {
          "name": "_jobId",
          "type": "uint256"
        },
        {
          "name": "_issuerId",
          "type": "uint256"
        },
        {
          "name": "_approvers",
          "type": "address[]"
        }
      ],
      "name": "replaceApprovers",
      "outputs": [],
      "payable": false,
      "stateMutability": "nonpayable",
      "type": "function"
    },
    {
      "constant": true,
      "inputs": [
        {
          "name": "_jobId",
          "type": "uint256"
        }
      ],
      "name": "getJob",
      "outputs": [
        {
          "components": [
            {
              "name": "issuers",
              "type": "address[]"
            },
            {
              "name": "approvers",
              "type": "address[]"
            },
            {
              "name": "token",
              "type": "address"
            },
            {
              "name": "tokenVersion",
              "type": "uint256"
            },
            {
              "name": "balance",
              "type": "uint256"
            },
            {
              "components": [
                {
                  "name": "issuer",
                  "type": "address"
                },
                {
                  "name": "submitter",
                  "type": "address"
                },
                {
                  "name": "amount",
                  "type": "uint256"
                },
                {
                  "name": "cancelled",
                  "type": "bool"
                }
              ],
              "name": "invoices",
              "type": "tuple[]"
            },
            {
              "components": [
                {
                  "name": "contributor",
                  "type": "address"
                },
                {
                  "name": "amount",
                  "type": "uint256"
                },
                {
                  "name": "refunded",
                  "type": "bool"
                }
              ],
              "name": "contributions",
              "type": "tuple[]"
            },
            {
              "name": "hiredCandidates",
              "type": "address[]"
            }
          ],
          "name": "",
          "type": "tuple"
        }
      ],
      "payable": false,
      "stateMutability": "view",
      "type": "function"
    }
  ],
  "bytecode": "0x608060405234801561001057600080fd5b5033600360006101000a81548173ffffffffffffffffffffffffffffffffffffffff021916908373ffffffffffffffffffffffffffffffffffffffff1602179055506158a180620000626000396000f3fe6080604052600436106101b75760003560e01c80639212051c116100ec578063ba67fb7a1161008a578063c6a8b42b11610064578063c6a8b42b146105d4578063eb9f23cd146105fd578063ec41e4cd14610626578063f1ab809f14610663576101b7565b8063ba67fb7a1461052f578063bf22c4571461056c578063c1107c11146105a9576101b7565b80639e64d9bf116100c65780639e64d9bf14610498578063a071fbd5146104c1578063a08f793c146104ea578063a7a0c9bd14610506576101b7565b80639212051c1461041b57806397a38e5b146104465780639d2bdb441461046f576101b7565b806354ceb73e11610159578063720dc00c11610133578063720dc00c1461036c5780637356c709146103975780637ef8213c146103c75780638da5cb5b146103f0576101b7565b806354ceb73e146102f157806361cf22131461031a578063651bad5214610343576101b7565b8063180aedf311610195578063180aedf3146102375780632092e259146102765780632cbf08f01461029f5780634daf1bb5146102c8576101b7565b8063010efa94146101bc57806317946bbc146101e557806317cfc2691461020e575b600080fd5b3480156101c857600080fd5b506101e360048036036101de91908101906144d7565b61068c565b005b3480156101f157600080fd5b5061020c60048036036102079190810190614262565b61088b565b005b34801561021a57600080fd5b50610235600480360361023091908101906141e7565b610b89565b005b34801561024357600080fd5b5061025e600480360361025991908101906147a1565b610e78565b60405161026d93929190614f91565b60405180910390f35b34801561028257600080fd5b5061029d60048036036102989190810190614701565b610ec2565b005b3480156102ab57600080fd5b506102c660048036036102c1919081019061469e565b6110d7565b005b3480156102d457600080fd5b506102ef60048036036102ea91908101906143e1565b61137b565b005b3480156102fd57600080fd5b50610318600480360361031391908101906147ca565b6115cf565b005b34801561032657600080fd5b50610341600480360361033c9190810190613fb8565b611686565b005b34801561034f57600080fd5b5061036a600480360361036591908101906143e1565b61177f565b005b34801561037857600080fd5b50610381611986565b60405161038e9190614fc8565b60405180910390f35b6103b160048036036103ac91908101906140b2565b611999565b6040516103be9190615045565b60405180910390f35b3480156103d357600080fd5b506103ee60048036036103e99190810190614623565b6119c6565b005b3480156103fc57600080fd5b50610405611b5b565b6040516104129190614edf565b60405180910390f35b34801561042757600080fd5b50610430611b81565b60405161043d9190615045565b60405180910390f35b34801561045257600080fd5b5061046d600480360361046891908101906145a8565b611b87565b005b34801561047b57600080fd5b506104966004803603610491919081019061445c565b611c5b565b005b3480156104a457600080fd5b506104bf60048036036104ba9190810190614701565b611e62565b005b3480156104cd57600080fd5b506104e860048036036104e391908101906145a8565b6120a7565b005b61050460048036036104ff9190810190614198565b61236b565b005b34801561051257600080fd5b5061052d600480360361052891908101906142f1565b612880565b005b34801561053b57600080fd5b5061055660048036036105519190810190613fe1565b61294e565b6040516105639190615045565b60405180910390f35b34801561057857600080fd5b50610593600480360361058e91908101906147a1565b612b32565b6040516105a09190615023565b60405180910390f35b3480156105b557600080fd5b506105be612f7e565b6040516105cb9190614edf565b60405180910390f35b3480156105e057600080fd5b506105fb60048036036105f6919081019061445c565b612fa4565b005b34801561060957600080fd5b50610624600480360361061f919081019061469e565b6131f8565b005b34801561063257600080fd5b5061064d60048036036106489190810190614806565b6134ad565b60405161065a9190614fc8565b60405180910390f35b34801561066f57600080fd5b5061068a60048036036106859190810190614392565b6134dc565b005b858073ffffffffffffffffffffffffffffffffffffffff163373ffffffffffffffffffffffffffffffffffffffff1614806107145750600460009054906101000a900473ffffffffffffffffffffffffffffffffffffffff1673ffffffffffffffffffffffffffffffffffffffff163373ffffffffffffffffffffffffffffffffffffffff16145b61071d57600080fd5b600054861061072b57600080fd5b6001600087815260200190815260200160002060000180549050851061075057600080fd5b60016000878152602001908152602001600020600001858154811061077157fe5b9060005260206000200160009054906101000a900473ffffffffffffffffffffffffffffffffffffffff1673ffffffffffffffffffffffffffffffffffffffff168773ffffffffffffffffffffffffffffffffffffffff16146107d357600080fd5b6000845111806107e4575060008351115b6107ed57600080fd5b83600160008881526020019081526020016000206000019080519060200190610817929190613b08565b5082600160008881526020019081526020016000206001019080519060200190610842929190613b92565b507f9fe6d631704324bf426564a53529d645a0dd0bb375404a69e38376031b7cd547868886868660405161087a959493929190615189565b60405180910390a150505050505050565b848073ffffffffffffffffffffffffffffffffffffffff163373ffffffffffffffffffffffffffffffffffffffff1614806109135750600460009054906101000a900473ffffffffffffffffffffffffffffffffffffffff1673ffffffffffffffffffffffffffffffffffffffff163373ffffffffffffffffffffffffffffffffffffffff16145b61091c57600080fd5b84600054811061092b57600080fd5b6109cf600160008881526020019081526020016000206007018054806020026020016040519081016040528092919081815260200182805480156109c457602002820191906000526020600020905b8160009054906101000a900473ffffffffffffffffffffffffffffffffffffffff1673ffffffffffffffffffffffffffffffffffffffff168152602001906001019080831161097a575b5050505050886136ca565b6109d857600080fd5b6001600087815260200190815260200160002060050160405180608001604052808773ffffffffffffffffffffffffffffffffffffffff1681526020018973ffffffffffffffffffffffffffffffffffffffff168152602001858152602001600015158152509080600181540180825580915050906001820390600052602060002090600402016000909192909190915060008201518160000160006101000a81548173ffffffffffffffffffffffffffffffffffffffff021916908373ffffffffffffffffffffffffffffffffffffffff16021790555060208201518160010160006101000a81548173ffffffffffffffffffffffffffffffffffffffff021916908373ffffffffffffffffffffffffffffffffffffffff1602179055506040820151816002015560608201518160030160006101000a81548160ff0219169083151502179055505050507f3718b45c48d44efaf82d7bf2a110b33bb7a931156ba6ab7920a2c371b616c44d8660018060008a8152602001908152602001600020600501805490500387878b88604051610b78969594939291906152d4565b60405180910390a150505050505050565b838073ffffffffffffffffffffffffffffffffffffffff163373ffffffffffffffffffffffffffffffffffffffff161480610c115750600460009054906101000a900473ffffffffffffffffffffffffffffffffffffffff1673ffffffffffffffffffffffffffffffffffffffff163373ffffffffffffffffffffffffffffffffffffffff16145b610c1a57600080fd5b836000548110610c2957600080fd5b858585600160008381526020019081526020016000206000018181548110610c4d57fe5b9060005260206000200160009054906101000a900473ffffffffffffffffffffffffffffffffffffffff1673ffffffffffffffffffffffffffffffffffffffff168373ffffffffffffffffffffffffffffffffffffffff1614610caf57600080fd5b600460149054906101000a900460ff1615610cc957600080fd5b6001600460146101000a81548160ff0219169083151502179055506000600160008a8152602001908152602001600020600301541480610d1f57506014600160008a815260200190815260200160002060030154145b15610d8d576001865114610d3257600080fd5b600160008981526020019081526020016000206004015486600081518110610d5657fe5b60200260200101511115610d6957600080fd5b610d88888a88600081518110610d7b57fe5b6020026020010151613746565b610e17565b60008090505b8651811015610e1557600260008a81526020019081526020016000206000888381518110610dbd57fe5b6020026020010151815260200190815260200160002060009054906101000a900460ff16610dea57600080fd5b610e08898b898481518110610dfb57fe5b6020026020010151613746565b8080600101915050610d93565b505b7f440feda3cf9686d525c542eae541fcd059f206856c3762f321fb8dd11c1f1533888a88604051610e4a9392919061510d565b60405180910390a16000600460146101000a81548160ff021916908315150217905550505050505050505050565b60016020528060005260406000206000915090508060020160009054906101000a900473ffffffffffffffffffffffffffffffffffffffff16908060030154908060040154905083565b848073ffffffffffffffffffffffffffffffffffffffff163373ffffffffffffffffffffffffffffffffffffffff161480610f4a5750600460009054906101000a900473ffffffffffffffffffffffffffffffffffffffff1673ffffffffffffffffffffffffffffffffffffffff163373ffffffffffffffffffffffffffffffffffffffff16145b610f5357600080fd5b846000548110610f6257600080fd5b868686600160008381526020019081526020016000206000018181548110610f8657fe5b9060005260206000200160009054906101000a900473ffffffffffffffffffffffffffffffffffffffff1673ffffffffffffffffffffffffffffffffffffffff168373ffffffffffffffffffffffffffffffffffffffff1614610fe857600080fd5b88876001600083815260200190815260200160002060010180549050811061100f57600080fd5b87600160008d81526020019081526020016000206001018a8154811061103157fe5b9060005260206000200160006101000a81548173ffffffffffffffffffffffffffffffffffffffff021916908373ffffffffffffffffffffffffffffffffffffffff1602179055507f51b5a0bd9c5f6f592572fd7ed90e21f1c298c46c793cbf912ee98ac280ea08648b8d600160008f81526020019081526020016000206001016040516110c19392919061514b565b60405180910390a1505050505050505050505050565b838073ffffffffffffffffffffffffffffffffffffffff163373ffffffffffffffffffffffffffffffffffffffff16148061115f5750600460009054906101000a900473ffffffffffffffffffffffffffffffffffffffff1673ffffffffffffffffffffffffffffffffffffffff163373ffffffffffffffffffffffffffffffffffffffff16145b61116857600080fd5b83600054811061117757600080fd5b84846001600083815260200190815260200160002060050180549050811061119e57600080fd5b8787866001600083815260200190815260200160002060010181815481106111c257fe5b9060005260206000200160009054906101000a900473ffffffffffffffffffffffffffffffffffffffff1673ffffffffffffffffffffffffffffffffffffffff168373ffffffffffffffffffffffffffffffffffffffff161461122457600080fd5b600460149054906101000a900460ff161561123e57600080fd5b6001600460146101000a81548160ff0219169083151502179055506000600160008c81526020019081526020016000206005018a8154811061127c57fe5b906000526020600020906004020190508060030160009054906101000a900460ff16156112de576040517f08c379a00000000000000000000000000000000000000000000000000000000081526004016112d590615003565b60405180910390fd5b6113118b8260000160009054906101000a900473ffffffffffffffffffffffffffffffffffffffff168360020154613746565b7f4c49314626d664cb05cf487c106b7cd28158d7bd85a0cbd878f5e15ea750aa728b8b8e846002015460405161134a9493929190615381565b60405180910390a1506000600460146101000a81548160ff0219169083151502179055505050505050505050505050565b838073ffffffffffffffffffffffffffffffffffffffff163373ffffffffffffffffffffffffffffffffffffffff1614806114035750600460009054906101000a900473ffffffffffffffffffffffffffffffffffffffff1673ffffffffffffffffffffffffffffffffffffffff163373ffffffffffffffffffffffffffffffffffffffff16145b61140c57600080fd5b83600054811061141b57600080fd5b84846001600083815260200190815260200160002060000180549050811061144257600080fd5b87878760016000838152602001908152602001600020600001818154811061146657fe5b9060005260206000200160009054906101000a900473ffffffffffffffffffffffffffffffffffffffff1673ffffffffffffffffffffffffffffffffffffffff168373ffffffffffffffffffffffffffffffffffffffff16146114c857600080fd5b60008090505b885181101561157157600160008c81526020019081526020016000206001018982815181106114f957fe5b602002602001015190806001815401808255809150509060018203906000526020600020016000909192909190916101000a81548173ffffffffffffffffffffffffffffffffffffffff021916908373ffffffffffffffffffffffffffffffffffffffff1602179055505080806001019150506114ce565b507f51b5a0bd9c5f6f592572fd7ed90e21f1c298c46c793cbf912ee98ac280ea08648a8c600160008e81526020019081526020016000206001016040516115ba9392919061514b565b60405180910390a15050505050505050505050565b600160008381526020019081526020016000206007018190806001815401808255809150509060018203906000526020600020016000909192909190916101000a81548173ffffffffffffffffffffffffffffffffffffffff021916908373ffffffffffffffffffffffffffffffffffffffff160217905550507f0d3f282a851b352c88bcffe9a2c5cdff24ef88f4e7998bb0ccbde53e79d0437e828260405161167a929190615060565b60405180910390a15050565b600360009054906101000a900473ffffffffffffffffffffffffffffffffffffffff1673ffffffffffffffffffffffffffffffffffffffff163373ffffffffffffffffffffffffffffffffffffffff16146116e057600080fd5b600073ffffffffffffffffffffffffffffffffffffffff16600460009054906101000a900473ffffffffffffffffffffffffffffffffffffffff1673ffffffffffffffffffffffffffffffffffffffff161461173b57600080fd5b80600460006101000a81548173ffffffffffffffffffffffffffffffffffffffff021916908373ffffffffffffffffffffffffffffffffffffffff16021790555050565b838073ffffffffffffffffffffffffffffffffffffffff163373ffffffffffffffffffffffffffffffffffffffff1614806118075750600460009054906101000a900473ffffffffffffffffffffffffffffffffffffffff1673ffffffffffffffffffffffffffffffffffffffff163373ffffffffffffffffffffffffffffffffffffffff16145b61181057600080fd5b83600054811061181f57600080fd5b84846001600083815260200190815260200160002060000180549050811061184657600080fd5b87878760016000838152602001908152602001600020600001818154811061186a57fe5b9060005260206000200160009054906101000a900473ffffffffffffffffffffffffffffffffffffffff1673ffffffffffffffffffffffffffffffffffffffff168373ffffffffffffffffffffffffffffffffffffffff16146118cc57600080fd5b6000600160008c81526020019081526020016000206000018054905011806118f5575060008851115b6118fe57600080fd5b87600160008c81526020019081526020016000206001019080519060200190611928929190613c1c565b507f51b5a0bd9c5f6f592572fd7ed90e21f1c298c46c793cbf912ee98ac280ea08648a8c600160008e81526020019081526020016000206001016040516119719392919061514b565b60405180910390a15050505050505050505050565b600460149054906101000a900460ff1681565b6000806119aa89898989898961294e565b90506119b789828561236b565b80915050979650505050505050565b838073ffffffffffffffffffffffffffffffffffffffff163373ffffffffffffffffffffffffffffffffffffffff161480611a4e5750600460009054906101000a900473ffffffffffffffffffffffffffffffffffffffff1673ffffffffffffffffffffffffffffffffffffffff163373ffffffffffffffffffffffffffffffffffffffff16145b611a5757600080fd5b836000548110611a6657600080fd5b848460016000838152602001908152602001600020600001805490508110611a8d57600080fd5b878787600160008381526020019081526020016000206000018181548110611ab157fe5b9060005260206000200160009054906101000a900473ffffffffffffffffffffffffffffffffffffffff1673ffffffffffffffffffffffffffffffffffffffff168373ffffffffffffffffffffffffffffffffffffffff1614611b1357600080fd5b7feb3b94e509f7b34496475d2f558f77817bafd50e8d3ae0d7236aafce8cea70978a8c8a604051611b469392919061526d565b60405180910390a15050505050505050505050565b600360009054906101000a900473ffffffffffffffffffffffffffffffffffffffff1681565b60005481565b838073ffffffffffffffffffffffffffffffffffffffff163373ffffffffffffffffffffffffffffffffffffffff161480611c0f5750600460009054906101000a900473ffffffffffffffffffffffffffffffffffffffff1673ffffffffffffffffffffffffffffffffffffffff163373ffffffffffffffffffffffffffffffffffffffff16145b611c1857600080fd5b60008090505b8251811015611c5357611c46868686868581518110611c3957fe5b60200260200101516131f8565b8080600101915050611c1e565b505050505050565b838073ffffffffffffffffffffffffffffffffffffffff163373ffffffffffffffffffffffffffffffffffffffff161480611ce35750600460009054906101000a900473ffffffffffffffffffffffffffffffffffffffff1673ffffffffffffffffffffffffffffffffffffffff163373ffffffffffffffffffffffffffffffffffffffff16145b611cec57600080fd5b836000548110611cfb57600080fd5b848460016000838152602001908152602001600020600001805490508110611d2257600080fd5b878787600160008381526020019081526020016000206000018181548110611d4657fe5b9060005260206000200160009054906101000a900473ffffffffffffffffffffffffffffffffffffffff1673ffffffffffffffffffffffffffffffffffffffff168373ffffffffffffffffffffffffffffffffffffffff1614611da857600080fd5b600088511180611dd157506000600160008c815260200190815260200160002060010180549050115b611dda57600080fd5b87600160008c81526020019081526020016000206000019080519060200190611e04929190613b08565b507f2aeb76042f960c668cb595857def90948eecedd0ac44494a88763c28e84bf9fa8a8c600160008e8152602001908152602001600020600001604051611e4d939291906151f1565b60405180910390a15050505050505050505050565b848073ffffffffffffffffffffffffffffffffffffffff163373ffffffffffffffffffffffffffffffffffffffff161480611eea5750600460009054906101000a900473ffffffffffffffffffffffffffffffffffffffff1673ffffffffffffffffffffffffffffffffffffffff163373ffffffffffffffffffffffffffffffffffffffff16145b611ef357600080fd5b846000548110611f0257600080fd5b858460016000838152602001908152602001600020600001805490508110611f2957600080fd5b888888600160008381526020019081526020016000206000018181548110611f4d57fe5b9060005260206000200160009054906101000a900473ffffffffffffffffffffffffffffffffffffffff1673ffffffffffffffffffffffffffffffffffffffff168373ffffffffffffffffffffffffffffffffffffffff1614611faf57600080fd5b600160008c8152602001908152602001600020600001805490508a1080611fd6575060008a145b611fdf57600080fd5b87600160008d81526020019081526020016000206000018a8154811061200157fe5b9060005260206000200160006101000a81548173ffffffffffffffffffffffffffffffffffffffff021916908373ffffffffffffffffffffffffffffffffffffffff1602179055507f2aeb76042f960c668cb595857def90948eecedd0ac44494a88763c28e84bf9fa8b8d600160008f8152602001908152602001600020600001604051612091939291906151f1565b60405180910390a1505050505050505050505050565b838073ffffffffffffffffffffffffffffffffffffffff163373ffffffffffffffffffffffffffffffffffffffff16148061212f5750600460009054906101000a900473ffffffffffffffffffffffffffffffffffffffff1673ffffffffffffffffffffffffffffffffffffffff163373ffffffffffffffffffffffffffffffffffffffff16145b61213857600080fd5b83600054811061214757600080fd5b85858560016000838152602001908152602001600020600001818154811061216b57fe5b9060005260206000200160009054906101000a900473ffffffffffffffffffffffffffffffffffffffff1673ffffffffffffffffffffffffffffffffffffffff168373ffffffffffffffffffffffffffffffffffffffff16146121cd57600080fd5b600460149054906101000a900460ff16156121e757600080fd5b6001600460146101000a81548160ff02191690831515021790555060008090505b865181101561230957600160008a81526020019081526020016000206006018054905087828151811061223757fe5b60200260200101511061224957600080fd5b6000600160008b815260200190815260200160002060060188838151811061226d57fe5b60200260200101518154811061227f57fe5b906000526020600020906003020190508060020160009054906101000a900460ff16156122ab57600080fd5b60018160020160006101000a81548160ff0219169083151502179055506122fb8a8260000160009054906101000a900473ffffffffffffffffffffffffffffffffffffffff168360010154613746565b508080600101915050612208565b507fc55c552370ad68c2faed667a8224a8ab373e39368872484a40619b1e884336de888a8860405161233d9392919061522f565b60405180910390a16000600460146101000a81548160ff021916908315150217905550505050505050505050565b828073ffffffffffffffffffffffffffffffffffffffff163373ffffffffffffffffffffffffffffffffffffffff1614806123f35750600460009054906101000a900473ffffffffffffffffffffffffffffffffffffffff1673ffffffffffffffffffffffffffffffffffffffff163373ffffffffffffffffffffffffffffffffffffffff16145b6123fc57600080fd5b82600054811061240b57600080fd5b600460149054906101000a900460ff161561242557600080fd5b6001600460146101000a81548160ff0219169083151502179055506000831161244d57600080fd5b6001600085815260200190815260200160002060060160405180606001604052808773ffffffffffffffffffffffffffffffffffffffff168152602001858152602001600015158152509080600181540180825580915050906001820390600052602060002090600302016000909192909190915060008201518160000160006101000a81548173ffffffffffffffffffffffffffffffffffffffff021916908373ffffffffffffffffffffffffffffffffffffffff1602179055506020820151816001015560408201518160020160006101000a81548160ff0219169083151502179055505050506000600160008681526020019081526020016000206003015414156125a95761257e836001600087815260200190815260200160002060040154613ad590919063ffffffff16565b60016000868152602001908152602001600020600401819055508234146125a457600080fd5b612806565b6014600160008681526020019081526020016000206003015414156126eb576125f1836001600087815260200190815260200160002060040154613ad590919063ffffffff16565b60016000868152602001908152602001600020600401819055506000341461261857600080fd5b6001600085815260200190815260200160002060020160009054906101000a900473ffffffffffffffffffffffffffffffffffffffff1673ffffffffffffffffffffffffffffffffffffffff166323b872dd8630866040518463ffffffff1660e01b815260040161268b93929190614efa565b602060405180830381600087803b1580156126a557600080fd5b505af11580156126b9573d6000803e3d6000fd5b505050506040513d601f19601f820116820180604052506126dd9190810190614778565b6126e657600080fd5b612805565b6102d1600160008681526020019081526020016000206003015414156127ff57600160026000868152602001908152602001600020600085815260200190815260200160002060006101000a81548160ff0219169083151502179055506000341461275557600080fd5b6001600085815260200190815260200160002060020160009054906101000a900473ffffffffffffffffffffffffffffffffffffffff1673ffffffffffffffffffffffffffffffffffffffff166323b872dd8630866040518463ffffffff1660e01b81526004016127c893929190614efa565b600060405180830381600087803b1580156127e257600080fd5b505af11580156127f6573d6000803e3d6000fd5b50505050612804565b600080fd5b5b5b7f7431e5e30247dcb2379eab9b0e60e49038c5ddb5cac27f27a17e950c0220a69384600180600088815260200190815260200160002060060180549050038786604051612856949392919061533c565b60405180910390a16000600460146101000a81548160ff0219169083151502179055505050505050565b858073ffffffffffffffffffffffffffffffffffffffff163373ffffffffffffffffffffffffffffffffffffffff1614806129085750600460009054906101000a900473ffffffffffffffffffffffffffffffffffffffff1673ffffffffffffffffffffffffffffffffffffffff163373ffffffffffffffffffffffffffffffffffffffff16145b61291157600080fd5b61291e878787878661088b565b612945878760018060008b81526020019081526020016000206005018054905003866110d7565b50505050505050565b6000868073ffffffffffffffffffffffffffffffffffffffff163373ffffffffffffffffffffffffffffffffffffffff1614806129d85750600460009054906101000a900473ffffffffffffffffffffffffffffffffffffffff1673ffffffffffffffffffffffffffffffffffffffff163373ffffffffffffffffffffffffffffffffffffffff16145b6129e157600080fd5b60008314806129f05750601483145b806129fc57506102d183145b612a0557600080fd5b600087511180612a16575060008651115b612a1f57600080fd5b600080549050600060016000838152602001908152602001600020905088816000019080519060200190612a54929190613b08565b5087816001019080519060200190612a6d929190613c1c565b5084816003018190555060008514612ac357858160020160006101000a81548173ffffffffffffffffffffffffffffffffffffffff021916908373ffffffffffffffffffffffffffffffffffffffff1602179055505b612ad96001600054613ad590919063ffffffff16565b6000819055507ffd2ddb7890884bde52ce81da978f7b1a6556aa08a4d60eb7f17b223347cae1e8828b8b8b8b8b8b604051612b1a9796959493929190615089565b60405180910390a18193505050509695505050505050565b612b3a613ca6565b600160008381526020019081526020016000206040518061010001604052908160008201805480602002602001604051908101604052809291908181526020018280548015612bde57602002820191906000526020600020905b8160009054906101000a900473ffffffffffffffffffffffffffffffffffffffff1673ffffffffffffffffffffffffffffffffffffffff1681526020019060010190808311612b94575b5050505050815260200160018201805480602002602001604051908101604052809291908181526020018280548015612c6c57602002820191906000526020600020905b8160009054906101000a900473ffffffffffffffffffffffffffffffffffffffff1673ffffffffffffffffffffffffffffffffffffffff1681526020019060010190808311612c22575b505050505081526020016002820160009054906101000a900473ffffffffffffffffffffffffffffffffffffffff1673ffffffffffffffffffffffffffffffffffffffff1673ffffffffffffffffffffffffffffffffffffffff168152602001600382015481526020016004820154815260200160058201805480602002602001604051908101604052809291908181526020016000905b82821015612e0757838290600052602060002090600402016040518060800160405290816000820160009054906101000a900473ffffffffffffffffffffffffffffffffffffffff1673ffffffffffffffffffffffffffffffffffffffff1673ffffffffffffffffffffffffffffffffffffffff1681526020016001820160009054906101000a900473ffffffffffffffffffffffffffffffffffffffff1673ffffffffffffffffffffffffffffffffffffffff1673ffffffffffffffffffffffffffffffffffffffff168152602001600282015481526020016003820160009054906101000a900460ff16151515158152505081526020019060010190612d04565b50505050815260200160068201805480602002602001604051908101604052809291908181526020016000905b82821015612ee157838290600052602060002090600302016040518060600160405290816000820160009054906101000a900473ffffffffffffffffffffffffffffffffffffffff1673ffffffffffffffffffffffffffffffffffffffff1673ffffffffffffffffffffffffffffffffffffffff168152602001600182015481526020016002820160009054906101000a900460ff16151515158152505081526020019060010190612e34565b50505050815260200160078201805480602002602001604051908101604052809291908181526020018280548015612f6e57602002820191906000526020600020905b8160009054906101000a900473ffffffffffffffffffffffffffffffffffffffff1673ffffffffffffffffffffffffffffffffffffffff1681526020019060010190808311612f24575b5050505050815250509050919050565b600460009054906101000a900473ffffffffffffffffffffffffffffffffffffffff1681565b838073ffffffffffffffffffffffffffffffffffffffff163373ffffffffffffffffffffffffffffffffffffffff16148061302c5750600460009054906101000a900473ffffffffffffffffffffffffffffffffffffffff1673ffffffffffffffffffffffffffffffffffffffff163373ffffffffffffffffffffffffffffffffffffffff16145b61303557600080fd5b83600054811061304457600080fd5b84846001600083815260200190815260200160002060000180549050811061306b57600080fd5b87878760016000838152602001908152602001600020600001818154811061308f57fe5b9060005260206000200160009054906101000a900473ffffffffffffffffffffffffffffffffffffffff1673ffffffffffffffffffffffffffffffffffffffff168373ffffffffffffffffffffffffffffffffffffffff16146130f157600080fd5b60008090505b885181101561319a57600160008c815260200190815260200160002060000189828151811061312257fe5b602002602001015190806001815401808255809150509060018203906000526020600020016000909192909190916101000a81548173ffffffffffffffffffffffffffffffffffffffff021916908373ffffffffffffffffffffffffffffffffffffffff1602179055505080806001019150506130f7565b507f2aeb76042f960c668cb595857def90948eecedd0ac44494a88763c28e84bf9fa8a8c600160008e81526020019081526020016000206000016040516131e3939291906151f1565b60405180910390a15050505050505050505050565b838073ffffffffffffffffffffffffffffffffffffffff163373ffffffffffffffffffffffffffffffffffffffff1614806132805750600460009054906101000a900473ffffffffffffffffffffffffffffffffffffffff1673ffffffffffffffffffffffffffffffffffffffff163373ffffffffffffffffffffffffffffffffffffffff16145b61328957600080fd5b83600054811061329857600080fd5b8483600160008381526020019081526020016000206006018054905081106132bf57600080fd5b8787876001600083815260200190815260200160002060000181815481106132e357fe5b9060005260206000200160009054906101000a900473ffffffffffffffffffffffffffffffffffffffff1673ffffffffffffffffffffffffffffffffffffffff168373ffffffffffffffffffffffffffffffffffffffff161461334557600080fd5b898860016000838152602001908152602001600020600601818154811061336857fe5b906000526020600020906003020160020160009054906101000a900460ff161561339157600080fd5b600460149054906101000a900460ff16156133ab57600080fd5b6001600460146101000a81548160ff0219169083151502179055506000600160008e81526020019081526020016000206006018b815481106133e957fe5b9060005260206000209060030201905060018160020160006101000a81548160ff0219169083151502179055506134498d8260000160009054906101000a900473ffffffffffffffffffffffffffffffffffffffff168360010154613746565b7ffb1da5cbf027ad18b7c1f786bf81e9920cc0db09d7e299a8e4f3dbb64ce32f018d8c60405161347a9291906152ab565b60405180910390a1506000600460146101000a81548160ff02191690831515021790555050505050505050505050505050565b60026020528160005260406000206020528060005260406000206000915091509054906101000a900460ff1681565b828073ffffffffffffffffffffffffffffffffffffffff163373ffffffffffffffffffffffffffffffffffffffff1614806135645750600460009054906101000a900473ffffffffffffffffffffffffffffffffffffffff1673ffffffffffffffffffffffffffffffffffffffff163373ffffffffffffffffffffffffffffffffffffffff16145b61356d57600080fd5b82600054811061357c57600080fd5b8383600160008381526020019081526020016000206005018054905081106135a357600080fd5b60006001600088815260200190815260200160002060050186815481106135c657fe5b906000526020600020906004020190508773ffffffffffffffffffffffffffffffffffffffff168160010160009054906101000a900473ffffffffffffffffffffffffffffffffffffffff1673ffffffffffffffffffffffffffffffffffffffff1614613668576040517f08c379a000000000000000000000000000000000000000000000000000000000815260040161365f90614fe3565b60405180910390fd5b60018160030160006101000a81548160ff0219169083151502179055507f09263c8e4dcbe3b05a6f43c05ef0dd2a17354ab7d284cfc4de0b086d11132af78888886040516136b893929190614f91565b60405180910390a15050505050505050565b6000806000905060008090505b8451811080156136e5575081155b1561373b578373ffffffffffffffffffffffffffffffffffffffff1685828151811061370d57fe5b602002602001015173ffffffffffffffffffffffffffffffffffffffff1614915080806001019150506136d7565b819250505092915050565b600060016000858152602001908152602001600020600301541415613824576000811161377257600080fd5b806001600085815260200190815260200160002060040154101561379557600080fd5b6137be816001600086815260200190815260200160002060040154613af190919063ffffffff16565b60016000858152602001908152602001600020600401819055508173ffffffffffffffffffffffffffffffffffffffff166108fc829081150290604051600060405180830381858888f1935050505015801561381e573d6000803e3d6000fd5b50613ad0565b601460016000858152602001908152602001600020600301541415613987576000811161385057600080fd5b806001600085815260200190815260200160002060040154101561387357600080fd5b61389c816001600086815260200190815260200160002060040154613af190919063ffffffff16565b60016000858152602001908152602001600020600401819055506001600084815260200190815260200160002060020160009054906101000a900473ffffffffffffffffffffffffffffffffffffffff1673ffffffffffffffffffffffffffffffffffffffff1663a9059cbb83836040518363ffffffff1660e01b8152600401613927929190614f31565b602060405180830381600087803b15801561394157600080fd5b505af1158015613955573d6000803e3d6000fd5b505050506040513d601f19601f820116820180604052506139799190810190614778565b61398257600080fd5b613acf565b6102d160016000858152602001908152602001600020600301541415613ac95760026000848152602001908152602001600020600082815260200190815260200160002060009054906101000a900460ff166139e257600080fd5b600060026000858152602001908152602001600020600083815260200190815260200160002060006101000a81548160ff0219169083151502179055506001600084815260200190815260200160002060020160009054906101000a900473ffffffffffffffffffffffffffffffffffffffff1673ffffffffffffffffffffffffffffffffffffffff166323b872dd3084846040518463ffffffff1660e01b8152600401613a9293929190614f5a565b600060405180830381600087803b158015613aac57600080fd5b505af1158015613ac0573d6000803e3d6000fd5b50505050613ace565b600080fd5b5b5b505050565b600080828401905083811015613ae757fe5b8091505092915050565b600082821115613afd57fe5b818303905092915050565b828054828255906000526020600020908101928215613b81579160200282015b82811115613b805782518260006101000a81548173ffffffffffffffffffffffffffffffffffffffff021916908373ffffffffffffffffffffffffffffffffffffffff16021790555091602001919060010190613b28565b5b509050613b8e9190613d01565b5090565b828054828255906000526020600020908101928215613c0b579160200282015b82811115613c0a5782518260006101000a81548173ffffffffffffffffffffffffffffffffffffffff021916908373ffffffffffffffffffffffffffffffffffffffff16021790555091602001919060010190613bb2565b5b509050613c189190613d44565b5090565b828054828255906000526020600020908101928215613c95579160200282015b82811115613c945782518260006101000a81548173ffffffffffffffffffffffffffffffffffffffff021916908373ffffffffffffffffffffffffffffffffffffffff16021790555091602001919060010190613c3c565b5b509050613ca29190613d44565b5090565b6040518061010001604052806060815260200160608152602001600073ffffffffffffffffffffffffffffffffffffffff16815260200160008152602001600081526020016060815260200160608152602001606081525090565b613d4191905b80821115613d3d57600081816101000a81549073ffffffffffffffffffffffffffffffffffffffff021916905550600101613d07565b5090565b90565b613d8491905b80821115613d8057600081816101000a81549073ffffffffffffffffffffffffffffffffffffffff021916905550600101613d4a565b5090565b90565b600081359050613d968161580b565b92915050565b600081359050613dab81615822565b92915050565b600082601f830112613dc257600080fd5b8135613dd5613dd0826153f3565b6153c6565b91508181835260208401935060208101905083856020840282011115613dfa57600080fd5b60005b83811015613e2a5781613e108882613d87565b845260208401935060208301925050600181019050613dfd565b5050505092915050565b600082601f830112613e4557600080fd5b8135613e58613e538261541b565b6153c6565b91508181835260208401935060208101905083856020840282011115613e7d57600080fd5b60005b83811015613ead5781613e938882613d9c565b845260208401935060208301925050600181019050613e80565b5050505092915050565b600082601f830112613ec857600080fd5b8135613edb613ed682615443565b6153c6565b91508181835260208401935060208101905083856020840282011115613f0057600080fd5b60005b83811015613f305781613f168882613fa3565b845260208401935060208301925050600181019050613f03565b5050505092915050565b600081519050613f4981615839565b92915050565b600082601f830112613f6057600080fd5b8135613f73613f6e8261546b565b6153c6565b91508082526020830160208301858383011115613f8f57600080fd5b613f9a838284615751565b50505092915050565b600081359050613fb281615850565b92915050565b600060208284031215613fca57600080fd5b6000613fd884828501613d87565b91505092915050565b60008060008060008060c08789031215613ffa57600080fd5b600061400889828a01613d9c565b965050602087013567ffffffffffffffff81111561402557600080fd5b61403189828a01613e34565b955050604087013567ffffffffffffffff81111561404e57600080fd5b61405a89828a01613db1565b945050606087013567ffffffffffffffff81111561407757600080fd5b61408389828a01613f4f565b935050608061409489828a01613d87565b92505060a06140a589828a01613fa3565b9150509295509295509295565b600080600080600080600060e0888a0312156140cd57600080fd5b60006140db8a828b01613d9c565b975050602088013567ffffffffffffffff8111156140f857600080fd5b6141048a828b01613e34565b965050604088013567ffffffffffffffff81111561412157600080fd5b61412d8a828b01613db1565b955050606088013567ffffffffffffffff81111561414a57600080fd5b6141568a828b01613f4f565b94505060806141678a828b01613d87565b93505060a06141788a828b01613fa3565b92505060c06141898a828b01613fa3565b91505092959891949750929550565b6000806000606084860312156141ad57600080fd5b60006141bb86828701613d9c565b93505060206141cc86828701613fa3565b92505060406141dd86828701613fa3565b9150509250925092565b600080600080608085870312156141fd57600080fd5b600061420b87828801613d9c565b945050602061421c87828801613fa3565b935050604061422d87828801613fa3565b925050606085013567ffffffffffffffff81111561424a57600080fd5b61425687828801613eb7565b91505092959194509250565b600080600080600060a0868803121561427a57600080fd5b600061428888828901613d87565b955050602061429988828901613fa3565b94505060406142aa88828901613d9c565b935050606086013567ffffffffffffffff8111156142c757600080fd5b6142d388828901613f4f565b92505060806142e488828901613fa3565b9150509295509295909350565b60008060008060008060c0878903121561430a57600080fd5b600061431889828a01613d87565b965050602061432989828a01613fa3565b955050604061433a89828a01613d9c565b945050606087013567ffffffffffffffff81111561435757600080fd5b61436389828a01613f4f565b935050608061437489828a01613fa3565b92505060a061438589828a01613fa3565b9150509295509295509295565b6000806000606084860312156143a757600080fd5b60006143b586828701613d87565b93505060206143c686828701613fa3565b92505060406143d786828701613fa3565b9150509250925092565b600080600080608085870312156143f757600080fd5b600061440587828801613d87565b945050602061441687828801613fa3565b935050604061442787828801613fa3565b925050606085013567ffffffffffffffff81111561444457600080fd5b61445087828801613db1565b91505092959194509250565b6000806000806080858703121561447257600080fd5b600061448087828801613d87565b945050602061449187828801613fa3565b93505060406144a287828801613fa3565b925050606085013567ffffffffffffffff8111156144bf57600080fd5b6144cb87828801613e34565b91505092959194509250565b60008060008060008060c087890312156144f057600080fd5b60006144fe89828a01613d87565b965050602061450f89828a01613fa3565b955050604061452089828a01613fa3565b945050606087013567ffffffffffffffff81111561453d57600080fd5b61454989828a01613e34565b935050608087013567ffffffffffffffff81111561456657600080fd5b61457289828a01613e34565b92505060a087013567ffffffffffffffff81111561458f57600080fd5b61459b89828a01613f4f565b9150509295509295509295565b600080600080608085870312156145be57600080fd5b60006145cc87828801613d87565b94505060206145dd87828801613fa3565b93505060406145ee87828801613fa3565b925050606085013567ffffffffffffffff81111561460b57600080fd5b61461787828801613eb7565b91505092959194509250565b6000806000806080858703121561463957600080fd5b600061464787828801613d87565b945050602061465887828801613fa3565b935050604061466987828801613fa3565b925050606085013567ffffffffffffffff81111561468657600080fd5b61469287828801613f4f565b91505092959194509250565b600080600080608085870312156146b457600080fd5b60006146c287828801613d87565b94505060206146d387828801613fa3565b93505060406146e487828801613fa3565b92505060606146f587828801613fa3565b91505092959194509250565b600080600080600060a0868803121561471957600080fd5b600061472788828901613d87565b955050602061473888828901613fa3565b945050604061474988828901613fa3565b935050606061475a88828901613fa3565b925050608061476b88828901613d9c565b9150509295509295909350565b60006020828403121561478a57600080fd5b600061479884828501613f3a565b91505092915050565b6000602082840312156147b357600080fd5b60006147c184828501613fa3565b91505092915050565b600080604083850312156147dd57600080fd5b60006147eb85828601613fa3565b92505060206147fc85828601613d87565b9150509250929050565b6000806040838503121561481957600080fd5b600061482785828601613fa3565b925050602061483885828601613fa3565b9150509250929050565b600061484e83836148c9565b60208301905092915050565b600061486683836148e7565b60208301905092915050565b600061487e8383614d5e565b60608301905092915050565b60006148968383614da0565b60808301905092915050565b60006148ae8383614ec1565b60208301905092915050565b6148c38161571b565b82525050565b6148d2816156d3565b82525050565b6148e1816156d3565b82525050565b6148f0816156c1565b82525050565b6148ff816156c1565b82525050565b600061491082615521565b61491a818561560a565b9350614925836154a4565b8060005b8381101561495657815161493d888261485a565b975061494883615591565b925050600181019050614929565b5085935050505092915050565b600061496e82615516565b61497881856155f9565b935061498383615497565b8060005b838110156149b457815161499b888261485a565b97506149a683615584565b925050600181019050614987565b5085935050505092915050565b60006149cc8261552c565b6149d6818561560a565b93506149e1836154b1565b8060005b83811015614a19576149f6826157c7565b614a00888261485a565b9750614a0b8361559e565b9250506001810190506149e5565b5085935050505092915050565b6000614a3182615542565b614a3b818561562c565b9350614a46836154d0565b8060005b83811015614a77578151614a5e8882614842565b9750614a69836155b8565b925050600181019050614a4a565b5085935050505092915050565b6000614a8f82615537565b614a99818561561b565b9350614aa4836154c3565b8060005b83811015614ad5578151614abc8882614842565b9750614ac7836155ab565b925050600181019050614aa8565b5085935050505092915050565b6000614aed8261554d565b614af7818561562c565b9350614b02836154dd565b8060005b83811015614b3a57614b17826157da565b614b218882614842565b9750614b2c836155c5565b925050600181019050614b06565b5085935050505092915050565b6000614b5282615558565b614b5c818561563d565b9350614b67836154ef565b8060005b83811015614b98578151614b7f8882614872565b9750614b8a836155d2565b925050600181019050614b6b565b5085935050505092915050565b6000614bb082615563565b614bba818561564e565b9350614bc5836154fc565b8060005b83811015614bf6578151614bdd888261488a565b9750614be8836155df565b925050600181019050614bc9565b5085935050505092915050565b6000614c0e8261556e565b614c18818561565f565b9350614c2383615509565b8060005b83811015614c54578151614c3b88826148a2565b9750614c46836155ec565b925050600181019050614c27565b5085935050505092915050565b614c6a816156e5565b82525050565b614c79816156e5565b82525050565b6000614c8a82615579565b614c948185615670565b9350614ca4818560208601615760565b614cad816157ed565b840191505092915050565b6000614cc5602f83615670565b91507f4f6e6c7920746865206f726967696e616c20696e766f6963652073656e64657260008301527f2063616e2063616e63656c2069742e00000000000000000000000000000000006020830152604082019050919050565b6000614d2b601e83615670565b91507f43616e27742061636365707420612063616e63656c6c656420696e70757400006000830152602082019050919050565b606082016000820151614d7460008501826148c9565b506020820151614d876020850182614ec1565b506040820151614d9a6040850182614c61565b50505050565b608082016000820151614db660008501826148c9565b506020820151614dc960208501826148e7565b506040820151614ddc6040850182614ec1565b506060820151614def6060850182614c61565b50505050565b6000610100830160008301518482036000860152614e138282614a84565b91505060208301518482036020860152614e2d8282614963565b9150506040830151614e4260408601826148e7565b506060830151614e556060860182614ec1565b506080830151614e686080860182614ec1565b5060a083015184820360a0860152614e808282614ba5565b91505060c083015184820360c0860152614e9a8282614b47565b91505060e083015184820360e0860152614eb48282614963565b9150508091505092915050565b614eca81615711565b82525050565b614ed981615711565b82525050565b6000602082019050614ef460008301846148f6565b92915050565b6000606082019050614f0f60008301866148ba565b614f1c60208301856148f6565b614f296040830184614ed0565b949350505050565b6000604082019050614f4660008301856148ba565b614f536020830184614ed0565b9392505050565b6000606082019050614f6f60008301866148f6565b614f7c60208301856148ba565b614f896040830184614ed0565b949350505050565b6000606082019050614fa660008301866148f6565b614fb36020830185614ed0565b614fc06040830184614ed0565b949350505050565b6000602082019050614fdd6000830184614c70565b92915050565b60006020820190508181036000830152614ffc81614cb8565b9050919050565b6000602082019050818103600083015261501c81614d1e565b9050919050565b6000602082019050818103600083015261503d8184614df5565b905092915050565b600060208201905061505a6000830184614ed0565b92915050565b60006040820190506150756000830185614ed0565b61508260208301846148f6565b9392505050565b600060e08201905061509e600083018a614ed0565b6150ab60208301896148d8565b81810360408301526150bd8188614a26565b905081810360608301526150d18187614905565b905081810360808301526150e58186614c7f565b90506150f460a08301856148f6565b61510160c0830184614ed0565b98975050505050505050565b60006060820190506151226000830186614ed0565b61512f60208301856148ba565b81810360408301526151418184614c03565b9050949350505050565b60006060820190506151606000830186614ed0565b61516d60208301856148f6565b818103604083015261517f81846149c1565b9050949350505050565b600060a08201905061519e6000830188614ed0565b6151ab60208301876148f6565b81810360408301526151bd8186614a26565b905081810360608301526151d18185614a26565b905081810360808301526151e58184614c7f565b90509695505050505050565b60006060820190506152066000830186614ed0565b61521360208301856148f6565b81810360408301526152258184614ae2565b9050949350505050565b60006060820190506152446000830186614ed0565b61525160208301856148f6565b81810360408301526152638184614c03565b9050949350505050565b60006060820190506152826000830186614ed0565b61528f60208301856148f6565b81810360408301526152a18184614c7f565b9050949350505050565b60006040820190506152c06000830185614ed0565b6152cd6020830184614ed0565b9392505050565b600060c0820190506152e96000830189614ed0565b6152f66020830188614ed0565b61530360408301876148d8565b81810360608301526153158186614c7f565b905061532460808301856148f6565b61533160a0830184614ed0565b979650505050505050565b60006080820190506153516000830187614ed0565b61535e6020830186614ed0565b61536b60408301856148d8565b6153786060830184614ed0565b95945050505050565b60006080820190506153966000830187614ed0565b6153a36020830186614ed0565b6153b060408301856148f6565b6153bd6060830184614ed0565b95945050505050565b6000604051905081810181811067ffffffffffffffff821117156153e957600080fd5b8060405250919050565b600067ffffffffffffffff82111561540a57600080fd5b602082029050602081019050919050565b600067ffffffffffffffff82111561543257600080fd5b602082029050602081019050919050565b600067ffffffffffffffff82111561545a57600080fd5b602082029050602081019050919050565b600067ffffffffffffffff82111561548257600080fd5b601f19601f8301169050602081019050919050565b6000602082019050919050565b6000602082019050919050565b60008160005260206000209050919050565b6000602082019050919050565b6000602082019050919050565b60008160005260206000209050919050565b6000602082019050919050565b6000602082019050919050565b6000602082019050919050565b600081519050919050565b600081519050919050565b600081549050919050565b600081519050919050565b600081519050919050565b600081549050919050565b600081519050919050565b600081519050919050565b600081519050919050565b600081519050919050565b6000602082019050919050565b6000602082019050919050565b6000600182019050919050565b6000602082019050919050565b6000602082019050919050565b6000600182019050919050565b6000602082019050919050565b6000602082019050919050565b6000602082019050919050565b600082825260208201905092915050565b600082825260208201905092915050565b600082825260208201905092915050565b600082825260208201905092915050565b600082825260208201905092915050565b600082825260208201905092915050565b600082825260208201905092915050565b600082825260208201905092915050565b600073ffffffffffffffffffffffffffffffffffffffff82169050919050565b600073ffffffffffffffffffffffffffffffffffffffff82169050919050565b60006156cc826156f1565b9050919050565b60006156de826156f1565b9050919050565b60008115159050919050565b600073ffffffffffffffffffffffffffffffffffffffff82169050919050565b6000819050919050565b60006157268261572d565b9050919050565b60006157388261573f565b9050919050565b600061574a826156f1565b9050919050565b82818337600083830152505050565b60005b8381101561577e578082015181840152602081019050615763565b8381111561578d576000848401525b50505050565b60006157a66157a1836157fe565b615681565b9050919050565b60006157c06157bb836157fe565b6156a1565b9050919050565b60006157d38254615793565b9050919050565b60006157e682546157ad565b9050919050565b6000601f19601f8301169050919050565b60008160001c9050919050565b615814816156c1565b811461581f57600080fd5b50565b61582b816156d3565b811461583657600080fd5b50565b615842816156e5565b811461584d57600080fd5b50565b61585981615711565b811461586457600080fd5b5056fea265627a7a72305820d4053123a9a03d84976b4c3454d8641d8d9a920683d341f16dede82ba428bb3f6c6578706572696d656e74616cf50037",
  "source": "pragma solidity 0.5.8;\npragma experimental ABIEncoderV2;\n\nimport \"./IERC20.sol\";\nimport \"./IERC721.sol\";\nimport \"./SafeMath.sol\";\n\n\n/// @title EthlanceJob\n/// @dev A contract for issuing jobs on Ethereum paying in ETH, ERC20, or ERC721 tokens\n/// @author Mark Beylin <mark.beylin@consensys.net>, Gonalo S <goncalo.sa@consensys.net>, Kevin Owocki <kevin.owocki@consensys.net>, Ricardo Guilherme Schmidt (@3esmit), Matt Garnett <matt.garnett@consensys.net>, Craig Williams <craig.williams@consensys.net>\ncontract EthlanceJobs {\n\n  using SafeMath for uint256;\n\n  /*\n   * Structs\n   */\n\n  struct Job {\n    address payable[] issuers; // An array of individuals who have complete control over the job, and can edit any of its parameters\n    address[] approvers; // An array of individuals who are allowed to accept the invoices for a particular job\n    address token; // The address of the token associated with the job (should be disregarded if the tokenVersion is 0)\n    uint tokenVersion; // The version of the token being used for the job (0 for ETH, 20 for ERC20, 721 for ERC721)\n    uint balance; // The number of tokens which the job is able to pay out or refund\n    Invoice[] invoices; // An array of Invoice which store the various submissions which have been made to the job\n    Contribution[] contributions; // An array of Contributions which store the contributions which have been made to the job\n    address[] hiredCandidates;\n  }\n\n  struct Invoice {\n    address payable issuer; // Address who should receive payouts for a given submission\n    address submitter;\n    uint amount;\n    bool cancelled;\n  }\n\n  struct Contribution {\n    address payable contributor; // The address of the individual who contributed\n    uint amount; // The amount of tokens the user contributed\n    bool refunded; // A boolean storing whether or not the contribution has been refunded yet\n  }\n\n  /*\n   * Storage\n   */\n\n  uint public numJobs; // An integer storing the total number of jobs in the contract\n  mapping(uint => Job) public jobs; // A mapping of jobIDs to jobs\n  mapping (uint => mapping (uint => bool)) public tokenBalances; // A mapping of jobIds to tokenIds to booleans, storing whether a given job has a given ERC721 token in its balance\n\n\n  address public owner; // The address of the individual who's allowed to set the metaTxRelayer address\n  address public metaTxRelayer; // The address of the meta transaction relayer whose _sender is automatically trusted for all contract calls\n\n  bool public callStarted; // Ensures mutex for the entire contract\n\n  /*\n   * Modifiers\n   */\n\n  modifier callNotStarted(){\n    require(!callStarted);\n    callStarted = true;\n    _;\n    callStarted = false;\n  }\n\n  modifier validateJobArrayIndex(\n                                 uint _index)\n  {\n    require(_index < numJobs);\n    _;\n  }\n\n  modifier validateContributionArrayIndex(\n                                          uint _jobId,\n                                          uint _index)\n  {\n    require(_index < jobs[_jobId].contributions.length);\n    _;\n  }\n\n  modifier validateInvoiceArrayIndex(\n                                         uint _jobId,\n                                         uint _index)\n  {\n    require(_index < jobs[_jobId].invoices.length);\n    _;\n  }\n\n  modifier validateIssuerArrayIndex(\n                                    uint _jobId,\n                                    uint _index)\n  {\n    require(_index < jobs[_jobId].issuers.length);\n    _;\n  }\n\n  modifier validateApproverArrayIndex(\n                                      uint _jobId,\n                                      uint _index)\n  {\n    require(_index < jobs[_jobId].approvers.length);\n    _;\n  }\n\n  modifier onlyIssuer(\n                      address _sender,\n                      uint _jobId,\n                      uint _issuerId)\n  {\n    require(_sender == jobs[_jobId].issuers[_issuerId]);\n    _;\n  }\n\n  modifier onlyInvoiceIssuer(\n                         address _sender,\n                         uint _jobId,\n                         uint _invoiceId)\n  {\n    require(_sender ==\n            jobs[_jobId].invoices[_invoiceId].issuer);\n    _;\n  }\n\n  modifier onlyContributor(\n                           address _sender,\n                           uint _jobId,\n                           uint _contributionId)\n  {\n    require(_sender ==\n            jobs[_jobId].contributions[_contributionId].contributor);\n    _;\n  }\n\n  modifier isApprover(\n                      address _sender,\n                      uint _jobId,\n                      uint _approverId)\n  {\n    require(_sender == jobs[_jobId].approvers[_approverId]);\n    _;\n  }\n\n  modifier hasNotRefunded(\n                          uint _jobId,\n                          uint _contributionId)\n  {\n    require(!jobs[_jobId].contributions[_contributionId].refunded);\n    _;\n  }\n\n  modifier senderIsValid(\n                         address _sender)\n  {\n    require(msg.sender == _sender || msg.sender == metaTxRelayer);\n    _;\n  }\n\n  /*\n   * Public functions\n   */\n\n  constructor() public {\n    // The owner of the contract is automatically designated to be the deployer of the contract\n    owner = msg.sender;\n  }\n\n  /// @dev setMetaTxRelayer(): Sets the address of the meta transaction relayer\n  /// @param _relayer the address of the relayer\n  function setMetaTxRelayer(address _relayer)\n    external\n  {\n    require(msg.sender == owner); // Checks that only the owner can call\n    require(metaTxRelayer == address(0)); // Ensures the meta tx relayer can only be set once\n    metaTxRelayer = _relayer;\n  }\n\n  function contains(address[] memory arr, address x) private pure returns(bool)\n  {\n    bool found = false;\n    uint i = 0;\n    while(i < arr.length && !found){\n      found = arr[i] == x;\n      i++;\n    }\n    return found;\n  }\n\n  function acceptCandidate(uint jobId, address candidate)\n    public\n  {\n    // Add the candidate as selected for the job\n    jobs[jobId].hiredCandidates.push(candidate);\n\n    emit CandidateAccepted(jobId, candidate);\n  }\n\n  /// @dev issueJob(): creates a new job\n  /// @param _sender the sender of the transaction issuing the job (should be the same as msg.sender unless the txn is called by the meta tx relayer)\n  /// @param _issuers the array of addresses who will be the issuers of the job\n  /// @param _approvers the array of addresses who will be the approvers of the job\n  /// @param _ipfsHash the IPFS hash representing the JSON object storing the details of the job (see docs for schema details)\n  /// @param _token the address of the token which will be used for the job\n  /// @param _tokenVersion the version of the token being used for the job (0 for ETH, 20 for ERC20, 721 for ERC721)\n  function issueJob(\n                    address payable _sender,\n                    address payable[] memory _issuers,\n                    address[] memory _approvers,\n                    string memory _ipfsHash,\n                    address _token,\n                    uint _tokenVersion)\n    public\n    senderIsValid(_sender)\n    returns (uint)\n  {\n    require(_tokenVersion == 0 || _tokenVersion == 20 || _tokenVersion == 721); // Ensures a job can only be issued with a valid token version\n    require(_issuers.length > 0 || _approvers.length > 0); // Ensures there's at least 1 issuer or approver\n\n    uint jobId = numJobs; // The next job's index will always equal the number of existing jobs\n\n    Job storage newJob = jobs[jobId];\n    newJob.issuers = _issuers;\n    newJob.approvers = _approvers;\n    newJob.tokenVersion = _tokenVersion;\n\n    if (_tokenVersion != 0){\n      newJob.token = _token;\n    }\n\n    numJobs = numJobs.add(1); // Increments the number of jobs, since a new one has just been added\n\n    emit JobIssued(jobId,\n                   _sender,\n                   _issuers,\n                   _approvers,\n                   _ipfsHash, // Instead of storing the string on-chain, it is emitted within the event for easy off-chain consumption\n                   _token,\n                   _tokenVersion);\n\n    return (jobId);\n  }\n\n  /// @param _depositAmount the amount of tokens being deposited to the job, which will create a new contribution to the job\n\n\n  function issueAndContribute(\n                              address payable _sender,\n                              address payable[] memory _issuers,\n                              address[] memory _approvers,\n                              string memory _ipfsHash,\n                              address _token,\n                              uint _tokenVersion,\n                              uint _depositAmount)\n    public\n    payable\n    returns(uint)\n  {\n    uint jobId = issueJob(_sender, _issuers, _approvers, _ipfsHash, _token, _tokenVersion);\n\n    contribute(_sender, jobId, _depositAmount);\n\n    return (jobId);\n  }\n\n\n  /// @dev contribute(): Allows users to contribute tokens to a given job.\n  ///                    Contributing merits no privelages to administer the\n  ///                    funds in the job or accept submissions. Contributions\n  ///                    has elapsed, and the job has not yet paid out any funds.\n  ///                    All funds deposited in a job are at the mercy of a\n  ///                    job's issuers and approvers, so please be careful!\n  /// @param _sender the sender of the transaction issuing the job (should be the same as msg.sender unless the txn is called by the meta tx relayer)\n  /// @param _jobId the index of the job\n  /// @param _amount the amount of tokens being contributed\n  function contribute(\n                      address payable _sender,\n                      uint _jobId,\n                      uint _amount)\n    public\n    payable\n    senderIsValid(_sender)\n    validateJobArrayIndex(_jobId)\n    callNotStarted\n  {\n    require(_amount > 0); // Contributions of 0 tokens or token ID 0 should fail\n\n    jobs[_jobId].contributions.push(\n                                    Contribution(_sender, _amount, false)); // Adds the contribution to the job\n\n    if (jobs[_jobId].tokenVersion == 0){\n\n      jobs[_jobId].balance = jobs[_jobId].balance.add(_amount); // Increments the balance of the job\n\n      require(msg.value == _amount);\n    } else if (jobs[_jobId].tokenVersion == 20){\n\n      jobs[_jobId].balance = jobs[_jobId].balance.add(_amount); // Increments the balance of the job\n\n      require(msg.value == 0); // Ensures users don't accidentally send ETH alongside a token contribution, locking up funds\n      require(IERC20(jobs[_jobId].token).transferFrom(_sender,\n                                                      address(this),\n                                                      _amount));\n    } else if (jobs[_jobId].tokenVersion == 721){\n      tokenBalances[_jobId][_amount] = true; // Adds the 721 token to the balance of the job\n\n\n      require(msg.value == 0); // Ensures users don't accidentally send ETH alongside a token contribution, locking up funds\n      IERC721(jobs[_jobId].token).transferFrom(_sender,\n                                               address(this),\n                                               _amount);\n    } else {\n      revert();\n    }\n\n    emit ContributionAdded(_jobId,\n                           jobs[_jobId].contributions.length - 1, // The new contributionId\n                           _sender,\n                           _amount);\n  }\n\n  /// @dev refundContribution(): Allows users to refund the contributions they've\n  ///                            made to a particular job, but only if the job\n  ///                            has not yet paid out\n  /// @param _sender the sender of the transaction issuing the job (should be the same as msg.sender unless the txn is called by the meta tx relayer)\n  /// @param _issuerId the issuer id for thre job\n  /// @param _jobId the index of the job\n  /// @param _contributionId the index of the contribution being refunded\n  function refundContribution(\n                              address _sender,\n                              uint _jobId,\n                              uint _issuerId,\n                              uint _contributionId)\n    public\n    senderIsValid(_sender)\n    validateJobArrayIndex(_jobId)\n    validateContributionArrayIndex(_jobId, _contributionId)\n    onlyIssuer(_sender, _jobId, _issuerId)\n    hasNotRefunded(_jobId, _contributionId)\n    callNotStarted\n  {\n\n    Contribution storage contribution = jobs[_jobId].contributions[_contributionId];\n\n    contribution.refunded = true;\n\n    transferTokens(_jobId, contribution.contributor, contribution.amount); // Performs the disbursal of tokens to the contributor\n\n    emit ContributionRefunded(_jobId, _contributionId);\n  }\n\n  /// @dev refundMyContributions(): Allows users to refund their contributions in bulk\n  /// @param _sender the sender of the transaction issuing the job (should be the same as msg.sender unless the txn is called by the meta tx relayer)\n  /// @param _jobId the index of the job\n  /// @param _contributionIds the array of indexes of the contributions being refunded\n  function refundMyContributions(\n                                 address _sender,\n                                 uint _jobId,\n                                 uint _issuerId,\n                                 uint[] memory _contributionIds)\n    public\n    senderIsValid(_sender)\n  {\n    for (uint i = 0; i < _contributionIds.length; i++){\n      refundContribution(_sender, _jobId, _issuerId, _contributionIds[i]);\n    }\n  }\n\n  /// @dev refundContributions(): Allows users to refund their contributions in bulk\n  /// @param _sender the sender of the transaction issuing the job (should be the same as msg.sender unless the txn is called by the meta tx relayer)\n  /// @param _jobId the index of the job\n  /// @param _issuerId the index of the issuer who is making the call\n  /// @param _contributionIds the array of indexes of the contributions being refunded\n  function refundContributions(\n                               address _sender,\n                               uint _jobId,\n                               uint _issuerId,\n                               uint[] memory _contributionIds)\n    public\n    senderIsValid(_sender)\n    validateJobArrayIndex(_jobId)\n    onlyIssuer(_sender, _jobId, _issuerId)\n    callNotStarted\n  {\n    for (uint i = 0; i < _contributionIds.length; i++){\n      require(_contributionIds[i] < jobs[_jobId].contributions.length);\n\n      Contribution storage contribution = jobs[_jobId].contributions[_contributionIds[i]];\n\n      require(!contribution.refunded);\n\n      contribution.refunded = true;\n\n      transferTokens(_jobId, contribution.contributor, contribution.amount); // Performs the disbursal of tokens to the contributor\n    }\n\n    emit ContributionsRefunded(_jobId, _sender, _contributionIds);\n  }\n\n  /// @dev drainJob(): Allows an issuer to drain the funds from the job\n  /// @notice when using this function, if an issuer doesn't drain the entire balance, some users may be able to refund their contributions, while others may not (which is unfair to them). Please use it wisely, only when necessary\n  /// @param _sender the sender of the transaction issuing the job (should be the same as msg.sender unless the txn is called by the meta tx relayer)\n  /// @param _jobId the index of the job\n  /// @param _issuerId the index of the issuer who is making the call\n  /// @param _amounts an array of amounts of tokens to be sent. The length of the array should be 1 if the job is in ETH or ERC20 tokens. If it's an ERC721 job, the array should be the list of tokenIDs.\n  function drainJob(\n                    address payable _sender,\n                    uint _jobId,\n                    uint _issuerId,\n                    uint[] memory _amounts)\n    public\n    senderIsValid(_sender)\n    validateJobArrayIndex(_jobId)\n    onlyIssuer(_sender, _jobId, _issuerId)\n    callNotStarted\n  {\n    if (jobs[_jobId].tokenVersion == 0 || jobs[_jobId].tokenVersion == 20){\n      require(_amounts.length == 1); // ensures there's only 1 amount of tokens to be returned\n      require(_amounts[0] <= jobs[_jobId].balance); // ensures an issuer doesn't try to drain the job of more tokens than their balance permits\n      transferTokens(_jobId, _sender, _amounts[0]); // Performs the draining of tokens to the issuer\n    } else {\n      for (uint i = 0; i < _amounts.length; i++){\n        require(tokenBalances[_jobId][_amounts[i]]);// ensures an issuer doesn't try to drain the job of a token it doesn't have in its balance\n        transferTokens(_jobId, _sender, _amounts[i]);\n      }\n    }\n\n    emit JobDrained(_jobId, _sender, _amounts);\n  }\n\n  /// @dev invoiceJob(): Allows users to invoice the job to get paid out\n  /// @param _sender the sender of the transaction issuing the job (should be the same as msg.sender unless the txn is called by the meta tx relayer)\n  /// @param _jobId the index of the job\n  /// @param _invoiceIssuer The invoice issuer, the addresses which will receive payouts for the submission\n  /// @param _ipfsHash the IPFS hash corresponding to a JSON object which contains the details of the submission (see docs for schema details)\n  function invoiceJob(\n                      address _sender,\n                      uint _jobId,\n                      address payable _invoiceIssuer,\n                      string memory _ipfsHash,\n                      uint _amount)\n    public\n    senderIsValid(_sender)\n    validateJobArrayIndex(_jobId)\n  {\n    require(contains(jobs[_jobId].hiredCandidates, _sender));\n\n    jobs[_jobId].invoices.push(Invoice(_invoiceIssuer, _sender, _amount, false));\n\n    emit JobInvoice(_jobId,\n                    (jobs[_jobId].invoices.length - 1),\n                    _invoiceIssuer,\n                    _ipfsHash, // The _ipfsHash string is emitted in an event for easy off-chain consumption\n                    _sender,\n                    _amount);\n  }\n\n  /// @dev cancelInvoice(): Allows the sender of the invoice to cancel it\n  /// @param _sender the sender of the transaction issuing the job (should be the same as msg.sender unless the txn is called by the meta tx relayer)\n  /// @param _jobId the index of the job\n  /// @param _invoiceId the index of the invoice to be accepted\n  function cancelInvoice(\n                         address _sender,\n                         uint _jobId,\n                         uint _invoiceId\n                         )\n    public\n    senderIsValid(_sender)\n    validateJobArrayIndex(_jobId)\n    validateInvoiceArrayIndex(_jobId, _invoiceId)\n  {\n    Invoice storage invoice=jobs[_jobId].invoices[_invoiceId];\n\n    if(invoice.submitter != _sender){\n      revert(\"Only the original invoice sender can cancel it.\");\n    }\n\n    invoice.cancelled=true;\n    emit InvoiceCancelled(_sender, _jobId, _invoiceId);\n  }\n\n  /// @dev acceptInvoice(): Allows any of the approvers to accept a given submission\n  /// @param _sender the sender of the transaction issuing the job (should be the same as msg.sender unless the txn is called by the meta tx relayer)\n  /// @param _jobId the index of the job\n  /// @param _invoiceId the index of the invoice to be accepted\n  /// @param _approverId the index of the approver which is making the call\n\n  function acceptInvoice(\n                         address _sender,\n                         uint _jobId,\n                         uint _invoiceId,\n                         uint _approverId\n                         )\n    public\n    senderIsValid(_sender)\n    validateJobArrayIndex(_jobId)\n    validateInvoiceArrayIndex(_jobId, _invoiceId)\n    isApprover(_sender, _jobId, _approverId)\n    callNotStarted\n  {\n    Invoice storage invoice = jobs[_jobId].invoices[_invoiceId];\n\n    if(invoice.cancelled){\n      revert(\"Can't accept a cancelled input\");\n    }\n\n    transferTokens(_jobId, invoice.issuer,invoice.amount);\n\n    emit InvoiceAccepted(_jobId,\n                         _invoiceId,\n                         _sender,\n                         invoice.amount);\n  }\n\n  /// @dev invoiceAndAccept(): Allows any of the approvers to invoice and accept a submission simultaneously\n  /// @param _sender the sender of the transaction issuing the job (should be the same as msg.sender unless the txn is called by the meta tx relayer)\n  /// @param _jobId the index of the job\n  /// @param _invoiceIssuer the array of addresses which will receive payouts for the submission\n  /// @param _ipfsHash the IPFS hash corresponding to a JSON object which contains the details of the submission (see docs for schema details)\n  /// @param _approverId the index of the approver which is making the call\n  function invoiceAndAccept(\n                            address _sender,\n                            uint _jobId,\n                            address payable _invoiceIssuer,\n                            string memory _ipfsHash,\n                            uint _approverId,\n                            uint _amount)\n    public\n    senderIsValid(_sender)\n  {\n    // first invoice the job on behalf of the _invoiceIssuer\n    invoiceJob(_sender, _jobId, _invoiceIssuer, _ipfsHash, _amount);\n\n    // then accepts the invoice\n    acceptInvoice(_sender,\n                  _jobId,\n                  jobs[_jobId].invoices.length - 1,\n                  _approverId\n                  );\n  }\n\n\n\n  /// @dev changeJob(): Allows any of the issuers to change the job\n  /// @param _sender the sender of the transaction issuing the job (should be the same as msg.sender unless the txn is called by the meta tx relayer)\n  /// @param _jobId the index of the job\n  /// @param _issuerId the index of the issuer who is calling the function\n  /// @param _issuers the new array of addresses who will be the issuers of the job\n  /// @param _approvers the new array of addresses who will be the approvers of the job\n  /// @param _ipfsHash the new IPFS hash representing the JSON object storing the details of the job (see docs for schema details)\n  function changeJob(\n                     address _sender,\n                     uint _jobId,\n                     uint _issuerId,\n                     address payable[] memory _issuers,\n                     address payable[] memory _approvers,\n                     string memory _ipfsHash\n                     )\n    public\n    senderIsValid(_sender)\n  {\n    require(_jobId < numJobs); // makes the validateJobArrayIndex modifier in-line to avoid stack too deep errors\n    require(_issuerId < jobs[_jobId].issuers.length); // makes the validateIssuerArrayIndex modifier in-line to avoid stack too deep errors\n    require(_sender == jobs[_jobId].issuers[_issuerId]); // makes the onlyIssuer modifier in-line to avoid stack too deep errors\n\n    require(_issuers.length > 0 || _approvers.length > 0); // Ensures there's at least 1 issuer or approver, so funds don't get stuck\n\n    jobs[_jobId].issuers = _issuers;\n    jobs[_jobId].approvers = _approvers;\n    emit JobChanged(_jobId,\n                    _sender,\n                    _issuers,\n                    _approvers,\n                    _ipfsHash);\n  }\n\n  /// @dev changeIssuer(): Allows any of the issuers to change a particular issuer of the job\n  /// @param _sender the sender of the transaction issuing the job (should be the same as msg.sender unless the txn is called by the meta tx relayer)\n  /// @param _jobId the index of the job\n  /// @param _issuerId the index of the issuer who is calling the function\n  /// @param _issuerIdToChange the index of the issuer who is being changed\n  /// @param _newIssuer the address of the new issuer\n  function changeIssuer(\n                        address _sender,\n                        uint _jobId,\n                        uint _issuerId,\n                        uint _issuerIdToChange,\n                        address payable _newIssuer)\n    public\n    senderIsValid(_sender)\n    validateJobArrayIndex(_jobId)\n    validateIssuerArrayIndex(_jobId, _issuerIdToChange)\n    onlyIssuer(_sender, _jobId, _issuerId)\n  {\n    require(_issuerId < jobs[_jobId].issuers.length || _issuerId == 0);\n\n    jobs[_jobId].issuers[_issuerIdToChange] = _newIssuer;\n\n    emit JobIssuersUpdated(_jobId, _sender, jobs[_jobId].issuers);\n  }\n\n  /// @dev changeApprover(): Allows any of the issuers to change a particular approver of the job\n  /// @param _sender the sender of the transaction issuing the job (should be the same as msg.sender unless the txn is called by the meta tx relayer)\n  /// @param _jobId the index of the job\n  /// @param _issuerId the index of the issuer who is calling the function\n  /// @param _approverId the index of the approver who is being changed\n  /// @param _approver the address of the new approver\n  function changeApprover(\n                          address _sender,\n                          uint _jobId,\n                          uint _issuerId,\n                          uint _approverId,\n                          address payable _approver)\n    external\n    senderIsValid(_sender)\n    validateJobArrayIndex(_jobId)\n    onlyIssuer(_sender, _jobId, _issuerId)\n    validateApproverArrayIndex(_jobId, _approverId)\n  {\n    jobs[_jobId].approvers[_approverId] = _approver;\n\n    emit JobApproversUpdated(_jobId, _sender, jobs[_jobId].approvers);\n  }\n\n  /// @dev changeData(): Allows any of the issuers to change the data the job\n  /// @param _sender the sender of the transaction issuing the job (should be the same as msg.sender unless the txn is called by the meta tx relayer)\n  /// @param _jobId the index of the job\n  /// @param _issuerId the index of the issuer who is calling the function\n  /// @param _ipfsHash the new IPFS hash representing the JSON object storing the details of the job (see docs for schema details)\n  function changeData(\n                      address _sender,\n                      uint _jobId,\n                      uint _issuerId,\n                      string memory _ipfsHash)\n    public\n    senderIsValid(_sender)\n    validateJobArrayIndex(_jobId)\n    validateIssuerArrayIndex(_jobId, _issuerId)\n    onlyIssuer(_sender, _jobId, _issuerId)\n  {\n    emit JobDataChanged(_jobId, _sender, _ipfsHash); // The new _ipfsHash is emitted within an event rather than being stored on-chain for minimized gas costs\n  }\n\n\n  /// @dev addIssuers(): Allows any of the issuers to add more issuers to the job\n  /// @param _sender the sender of the transaction issuing the job (should be the same as msg.sender unless the txn is called by the meta tx relayer)\n  /// @param _jobId the index of the job\n  /// @param _issuerId the index of the issuer who is calling the function\n  /// @param _issuers the array of addresses to add to the list of valid issuers\n  function addIssuers(\n                      address _sender,\n                      uint _jobId,\n                      uint _issuerId,\n                      address payable[] memory _issuers)\n    public\n    senderIsValid(_sender)\n    validateJobArrayIndex(_jobId)\n    validateIssuerArrayIndex(_jobId, _issuerId)\n    onlyIssuer(_sender, _jobId, _issuerId)\n  {\n    for (uint i = 0; i < _issuers.length; i++){\n      jobs[_jobId].issuers.push(_issuers[i]);\n    }\n\n    emit JobIssuersUpdated(_jobId, _sender, jobs[_jobId].issuers);\n  }\n\n  /// @dev replaceIssuers(): Allows any of the issuers to replace the issuers of the job\n  /// @param _sender the sender of the transaction issuing the job (should be the same as msg.sender unless the txn is called by the meta tx relayer)\n  /// @param _jobId the index of the job\n  /// @param _issuerId the index of the issuer who is calling the function\n  /// @param _issuers the array of addresses to replace the list of valid issuers\n  function replaceIssuers(\n                          address _sender,\n                          uint _jobId,\n                          uint _issuerId,\n                          address payable[] memory _issuers)\n    public\n    senderIsValid(_sender)\n    validateJobArrayIndex(_jobId)\n    validateIssuerArrayIndex(_jobId, _issuerId)\n    onlyIssuer(_sender, _jobId, _issuerId)\n  {\n    require(_issuers.length > 0 || jobs[_jobId].approvers.length > 0); // Ensures there's at least 1 issuer or approver, so funds don't get stuck\n\n    jobs[_jobId].issuers = _issuers;\n\n    emit JobIssuersUpdated(_jobId, _sender, jobs[_jobId].issuers);\n  }\n\n  /// @dev addApprovers(): Allows any of the issuers to add more approvers to the job\n  /// @param _sender the sender of the transaction issuing the job (should be the same as msg.sender unless the txn is called by the meta tx relayer)\n  /// @param _jobId the index of the job\n  /// @param _issuerId the index of the issuer who is calling the function\n  /// @param _approvers the array of addresses to add to the list of valid approvers\n  function addApprovers(\n                        address _sender,\n                        uint _jobId,\n                        uint _issuerId,\n                        address[] memory _approvers)\n    public\n    senderIsValid(_sender)\n    validateJobArrayIndex(_jobId)\n    validateIssuerArrayIndex(_jobId, _issuerId)\n    onlyIssuer(_sender, _jobId, _issuerId)\n  {\n    for (uint i = 0; i < _approvers.length; i++){\n      jobs[_jobId].approvers.push(_approvers[i]);\n    }\n\n    emit JobApproversUpdated(_jobId, _sender, jobs[_jobId].approvers);\n  }\n\n  /// @dev replaceApprovers(): Allows any of the issuers to replace the approvers of the job\n  /// @param _sender the sender of the transaction issuing the job (should be the same as msg.sender unless the txn is called by the meta tx relayer)\n  /// @param _jobId the index of the job\n  /// @param _issuerId the index of the issuer who is calling the function\n  /// @param _approvers the array of addresses to replace the list of valid approvers\n  function replaceApprovers(\n                            address _sender,\n                            uint _jobId,\n                            uint _issuerId,\n                            address[] memory _approvers)\n    public\n    senderIsValid(_sender)\n    validateJobArrayIndex(_jobId)\n    validateIssuerArrayIndex(_jobId, _issuerId)\n    onlyIssuer(_sender, _jobId, _issuerId)\n  {\n    require(jobs[_jobId].issuers.length > 0 || _approvers.length > 0); // Ensures there's at least 1 issuer or approver, so funds don't get stuck\n    jobs[_jobId].approvers = _approvers;\n\n    emit JobApproversUpdated(_jobId, _sender, jobs[_jobId].approvers);\n  }\n\n  /// @dev getJob(): Returns the details of the job\n  /// @param _jobId the index of the job\n  /// @return Returns a tuple for the job\n  function getJob(uint _jobId)\n    external\n    view\n    returns (Job memory)\n  {\n    return jobs[_jobId];\n  }\n\n\n  function transferTokens(uint _jobId, address payable _to, uint _amount)\n    internal\n  {\n    if (jobs[_jobId].tokenVersion == 0){\n      require(_amount > 0); // Sending 0 tokens should throw\n      require(jobs[_jobId].balance >= _amount);\n\n      jobs[_jobId].balance = jobs[_jobId].balance.sub(_amount);\n\n      _to.transfer(_amount);\n    } else if (jobs[_jobId].tokenVersion == 20){\n      require(_amount > 0); // Sending 0 tokens should throw\n      require(jobs[_jobId].balance >= _amount);\n\n      jobs[_jobId].balance = jobs[_jobId].balance.sub(_amount);\n\n      require(IERC20(jobs[_jobId].token).transfer(_to, _amount));\n    } else if (jobs[_jobId].tokenVersion == 721){\n      require(tokenBalances[_jobId][_amount]);\n\n      tokenBalances[_jobId][_amount] = false; // Removes the 721 token from the balance of the job\n\n      IERC721(jobs[_jobId].token).transferFrom(address(this),\n                                               _to,\n                                               _amount);\n    } else {\n      revert();\n    }\n  }\n\n  /*\n   * Events\n   */\n\n  event JobIssued(uint _jobId, address payable _creator, address payable[] _issuers, address[] _approvers, string _ipfsHash, address _token, uint _tokenVersion);\n  event ContributionAdded(uint _jobId, uint _contributionId, address payable _contributor, uint _amount);\n  event ContributionRefunded(uint _jobId, uint _contributionId);\n  event ContributionsRefunded(uint _jobId, address _issuer, uint[] _contributionIds);\n  event JobDrained(uint _jobId, address _issuer, uint[] _amounts);\n  event JobInvoice(uint _jobId, uint _invoiceId, address payable _invoiceIssuer, string _ipfsHash, address _submitter, uint _amount);\n  event InvoiceAccepted(uint _jobId, uint  _invoiceId, address _approver, uint _amount);\n  event JobChanged(uint _jobId, address _changer, address payable[] _issuers, address payable[] _approvers, string _ipfsHash);\n  event JobIssuersUpdated(uint _jobId, address _changer, address payable[] _issuers);\n  event JobApproversUpdated(uint _jobId, address _changer, address[] _approvers);\n  event JobDataChanged(uint _jobId, address _changer, string _ipfsHash);\n\n  event CandidateAccepted(uint _jobId, address _candidate);\n  event InvoiceCancelled(address _sender, uint _jobId, uint _invoiceId);\n}\n",
  "sourcePath": "/Users/jeff/ethlance-subgraph/contracts/EthlanceJobs.sol",
  "compiler": {
    "name": "solc",
    "version": "0.5.8+commit.23d335f2.Emscripten.clang"
  },
  "schemaVersion": "3.3.0",
  "updatedAt": "2020-12-10T01:10:53.901Z",
  "devdoc": {
    "author": "Mark Beylin <mark.beylin@consensys.net>, Gonalo S <goncalo.sa@consensys.net>, Kevin Owocki <kevin.owocki@consensys.net>, Ricardo Guilherme Schmidt (@3esmit), Matt Garnett <matt.garnett@consensys.net>, Craig Williams <craig.williams@consensys.net>",
    "details": "A contract for issuing jobs on Ethereum paying in ETH, ERC20, or ERC721 tokens",
    "methods": {
      "acceptInvoice(address,uint256,uint256,uint256)": {
        "details": "acceptInvoice(): Allows any of the approvers to accept a given submission",
        "params": {
          "_approverId": "the index of the approver which is making the call",
          "_invoiceId": "the index of the invoice to be accepted",
          "_jobId": "the index of the job",
          "_sender": "the sender of the transaction issuing the job (should be the same as msg.sender unless the txn is called by the meta tx relayer)"
        }
      },
      "addApprovers(address,uint256,uint256,address[])": {
        "details": "addApprovers(): Allows any of the issuers to add more approvers to the job",
        "params": {
          "_approvers": "the array of addresses to add to the list of valid approvers",
          "_issuerId": "the index of the issuer who is calling the function",
          "_jobId": "the index of the job",
          "_sender": "the sender of the transaction issuing the job (should be the same as msg.sender unless the txn is called by the meta tx relayer)"
        }
      },
      "addIssuers(address,uint256,uint256,address[])": {
        "details": "addIssuers(): Allows any of the issuers to add more issuers to the job",
        "params": {
          "_issuerId": "the index of the issuer who is calling the function",
          "_issuers": "the array of addresses to add to the list of valid issuers",
          "_jobId": "the index of the job",
          "_sender": "the sender of the transaction issuing the job (should be the same as msg.sender unless the txn is called by the meta tx relayer)"
        }
      },
      "cancelInvoice(address,uint256,uint256)": {
        "details": "cancelInvoice(): Allows the sender of the invoice to cancel it",
        "params": {
          "_invoiceId": "the index of the invoice to be accepted",
          "_jobId": "the index of the job",
          "_sender": "the sender of the transaction issuing the job (should be the same as msg.sender unless the txn is called by the meta tx relayer)"
        }
      },
      "changeApprover(address,uint256,uint256,uint256,address)": {
        "details": "changeApprover(): Allows any of the issuers to change a particular approver of the job",
        "params": {
          "_approver": "the address of the new approver",
          "_approverId": "the index of the approver who is being changed",
          "_issuerId": "the index of the issuer who is calling the function",
          "_jobId": "the index of the job",
          "_sender": "the sender of the transaction issuing the job (should be the same as msg.sender unless the txn is called by the meta tx relayer)"
        }
      },
      "changeData(address,uint256,uint256,string)": {
        "details": "changeData(): Allows any of the issuers to change the data the job",
        "params": {
          "_ipfsHash": "the new IPFS hash representing the JSON object storing the details of the job (see docs for schema details)",
          "_issuerId": "the index of the issuer who is calling the function",
          "_jobId": "the index of the job",
          "_sender": "the sender of the transaction issuing the job (should be the same as msg.sender unless the txn is called by the meta tx relayer)"
        }
      },
      "changeIssuer(address,uint256,uint256,uint256,address)": {
        "details": "changeIssuer(): Allows any of the issuers to change a particular issuer of the job",
        "params": {
          "_issuerId": "the index of the issuer who is calling the function",
          "_issuerIdToChange": "the index of the issuer who is being changed",
          "_jobId": "the index of the job",
          "_newIssuer": "the address of the new issuer",
          "_sender": "the sender of the transaction issuing the job (should be the same as msg.sender unless the txn is called by the meta tx relayer)"
        }
      },
      "changeJob(address,uint256,uint256,address[],address[],string)": {
        "details": "changeJob(): Allows any of the issuers to change the job",
        "params": {
          "_approvers": "the new array of addresses who will be the approvers of the job",
          "_ipfsHash": "the new IPFS hash representing the JSON object storing the details of the job (see docs for schema details)",
          "_issuerId": "the index of the issuer who is calling the function",
          "_issuers": "the new array of addresses who will be the issuers of the job",
          "_jobId": "the index of the job",
          "_sender": "the sender of the transaction issuing the job (should be the same as msg.sender unless the txn is called by the meta tx relayer)"
        }
      },
      "contribute(address,uint256,uint256)": {
        "details": "contribute(): Allows users to contribute tokens to a given job.                    Contributing merits no privelages to administer the                    funds in the job or accept submissions. Contributions                    has elapsed, and the job has not yet paid out any funds.                    All funds deposited in a job are at the mercy of a                    job's issuers and approvers, so please be careful!",
        "params": {
          "_amount": "the amount of tokens being contributed",
          "_jobId": "the index of the job",
          "_sender": "the sender of the transaction issuing the job (should be the same as msg.sender unless the txn is called by the meta tx relayer)"
        }
      },
      "drainJob(address,uint256,uint256,uint256[])": {
        "details": "drainJob(): Allows an issuer to drain the funds from the job",
        "params": {
          "_amounts": "an array of amounts of tokens to be sent. The length of the array should be 1 if the job is in ETH or ERC20 tokens. If it's an ERC721 job, the array should be the list of tokenIDs.",
          "_issuerId": "the index of the issuer who is making the call",
          "_jobId": "the index of the job",
          "_sender": "the sender of the transaction issuing the job (should be the same as msg.sender unless the txn is called by the meta tx relayer)"
        }
      },
      "getJob(uint256)": {
        "details": "getJob(): Returns the details of the job",
        "params": {
          "_jobId": "the index of the job"
        },
        "return": "Returns a tuple for the job"
      },
      "invoiceAndAccept(address,uint256,address,string,uint256,uint256)": {
        "details": "invoiceAndAccept(): Allows any of the approvers to invoice and accept a submission simultaneously",
        "params": {
          "_approverId": "the index of the approver which is making the call",
          "_invoiceIssuer": "the array of addresses which will receive payouts for the submission",
          "_ipfsHash": "the IPFS hash corresponding to a JSON object which contains the details of the submission (see docs for schema details)",
          "_jobId": "the index of the job",
          "_sender": "the sender of the transaction issuing the job (should be the same as msg.sender unless the txn is called by the meta tx relayer)"
        }
      },
      "invoiceJob(address,uint256,address,string,uint256)": {
        "details": "invoiceJob(): Allows users to invoice the job to get paid out",
        "params": {
          "_invoiceIssuer": "The invoice issuer, the addresses which will receive payouts for the submission",
          "_ipfsHash": "the IPFS hash corresponding to a JSON object which contains the details of the submission (see docs for schema details)",
          "_jobId": "the index of the job",
          "_sender": "the sender of the transaction issuing the job (should be the same as msg.sender unless the txn is called by the meta tx relayer)"
        }
      },
      "issueAndContribute(address,address[],address[],string,address,uint256,uint256)": {
        "params": {
          "_depositAmount": "the amount of tokens being deposited to the job, which will create a new contribution to the job"
        }
      },
      "issueJob(address,address[],address[],string,address,uint256)": {
        "details": "issueJob(): creates a new job",
        "params": {
          "_approvers": "the array of addresses who will be the approvers of the job",
          "_ipfsHash": "the IPFS hash representing the JSON object storing the details of the job (see docs for schema details)",
          "_issuers": "the array of addresses who will be the issuers of the job",
          "_sender": "the sender of the transaction issuing the job (should be the same as msg.sender unless the txn is called by the meta tx relayer)",
          "_token": "the address of the token which will be used for the job",
          "_tokenVersion": "the version of the token being used for the job (0 for ETH, 20 for ERC20, 721 for ERC721)"
        }
      },
      "refundContribution(address,uint256,uint256,uint256)": {
        "details": "refundContribution(): Allows users to refund the contributions they've                            made to a particular job, but only if the job                            has not yet paid out",
        "params": {
          "_contributionId": "the index of the contribution being refunded",
          "_issuerId": "the issuer id for thre job",
          "_jobId": "the index of the job",
          "_sender": "the sender of the transaction issuing the job (should be the same as msg.sender unless the txn is called by the meta tx relayer)"
        }
      },
      "refundContributions(address,uint256,uint256,uint256[])": {
        "details": "refundContributions(): Allows users to refund their contributions in bulk",
        "params": {
          "_contributionIds": "the array of indexes of the contributions being refunded",
          "_issuerId": "the index of the issuer who is making the call",
          "_jobId": "the index of the job",
          "_sender": "the sender of the transaction issuing the job (should be the same as msg.sender unless the txn is called by the meta tx relayer)"
        }
      },
      "refundMyContributions(address,uint256,uint256,uint256[])": {
        "details": "refundMyContributions(): Allows users to refund their contributions in bulk",
        "params": {
          "_contributionIds": "the array of indexes of the contributions being refunded",
          "_jobId": "the index of the job",
          "_sender": "the sender of the transaction issuing the job (should be the same as msg.sender unless the txn is called by the meta tx relayer)"
        }
      },
      "replaceApprovers(address,uint256,uint256,address[])": {
        "details": "replaceApprovers(): Allows any of the issuers to replace the approvers of the job",
        "params": {
          "_approvers": "the array of addresses to replace the list of valid approvers",
          "_issuerId": "the index of the issuer who is calling the function",
          "_jobId": "the index of the job",
          "_sender": "the sender of the transaction issuing the job (should be the same as msg.sender unless the txn is called by the meta tx relayer)"
        }
      },
      "replaceIssuers(address,uint256,uint256,address[])": {
        "details": "replaceIssuers(): Allows any of the issuers to replace the issuers of the job",
        "params": {
          "_issuerId": "the index of the issuer who is calling the function",
          "_issuers": "the array of addresses to replace the list of valid issuers",
          "_jobId": "the index of the job",
          "_sender": "the sender of the transaction issuing the job (should be the same as msg.sender unless the txn is called by the meta tx relayer)"
        }
      },
      "setMetaTxRelayer(address)": {
        "details": "setMetaTxRelayer(): Sets the address of the meta transaction relayer",
        "params": {
          "_relayer": "the address of the relayer"
        }
      }
    },
    "title": "EthlanceJob"
  },
  "userdoc": {
    "methods": {
      "drainJob(address,uint256,uint256,uint256[])": {
        "notice": "when using this function, if an issuer doesn't drain the entire balance, some users may be able to refund their contributions, while others may not (which is unfair to them). Please use it wisely, only when necessary"
      }
    }
  }
}